{
  "abi": [
    {
      "inputs": [
        {
          "internalType": "address",
          "name": "_officersContract",
          "type": "address"
        }
      ],
      "stateMutability": "nonpayable",
      "type": "constructor"
    },
    {
      "inputs": [],
      "name": "InvalidHash",
      "type": "error"
    },
    {
      "inputs": [],
      "name": "InvalidOfficer",
      "type": "error"
    },
    {
      "inputs": [],
      "name": "InvalidShortString",
      "type": "error"
    },
    {
      "inputs": [],
      "name": "InvalidSignature",
      "type": "error"
    },
    {
      "inputs": [
        {
          "internalType": "string",
          "name": "str",
          "type": "string"
        }
      ],
      "name": "StringTooLong",
      "type": "error"
    },
    {
      "anonymous": false,
      "inputs": [
        {
          "indexed": false,
          "internalType": "uint256",
          "name": "caseId",
          "type": "uint256"
        },
        {
          "indexed": true,
          "internalType": "address",
          "name": "initiator",
          "type": "address"
        },
        {
          "indexed": true,
          "internalType": "address",
          "name": "officer",
          "type": "address"
        }
      ],
      "name": "AddOfficer",
      "type": "event"
    },
    {
      "anonymous": false,
      "inputs": [
        {
          "indexed": false,
          "internalType": "uint256",
          "name": "caseId",
          "type": "uint256"
        },
        {
          "indexed": true,
          "internalType": "address",
          "name": "initiator",
          "type": "address"
        },
        {
          "indexed": false,
          "internalType": "enum Cases.CaseStatus",
          "name": "oldStatus",
          "type": "uint8"
        },
        {
          "indexed": false,
          "internalType": "enum Cases.CaseStatus",
          "name": "newStatus",
          "type": "uint8"
        }
      ],
      "name": "CaseStatusUpdated",
      "type": "event"
    },
    {
      "anonymous": false,
      "inputs": [],
      "name": "EIP712DomainChanged",
      "type": "event"
    },
    {
      "anonymous": false,
      "inputs": [
        {
          "indexed": false,
          "internalType": "uint256",
          "name": "caseId",
          "type": "uint256"
        },
        {
          "indexed": true,
          "internalType": "address",
          "name": "initiator",
          "type": "address"
        }
      ],
      "name": "NewCase",
      "type": "event"
    },
    {
      "anonymous": false,
      "inputs": [
        {
          "indexed": false,
          "internalType": "uint256",
          "name": "caseId",
          "type": "uint256"
        },
        {
          "indexed": true,
          "internalType": "address",
          "name": "initiator",
          "type": "address"
        },
        {
          "indexed": false,
          "internalType": "uint48",
          "name": "evidenceId",
          "type": "uint48"
        },
        {
          "indexed": false,
          "internalType": "enum Cases.EvidenceCategory",
          "name": "category",
          "type": "uint8"
        },
        {
          "indexed": false,
          "internalType": "bytes32",
          "name": "dataHash",
          "type": "bytes32"
        },
        {
          "indexed": false,
          "internalType": "bytes",
          "name": "data",
          "type": "bytes"
        }
      ],
      "name": "NewEvidenceInCase",
      "type": "event"
    },
    {
      "anonymous": false,
      "inputs": [
        {
          "indexed": false,
          "internalType": "uint256",
          "name": "caseId",
          "type": "uint256"
        },
        {
          "indexed": true,
          "internalType": "address",
          "name": "initiator",
          "type": "address"
        },
        {
          "indexed": false,
          "internalType": "uint48",
          "name": "suspectId",
          "type": "uint48"
        },
        {
          "indexed": false,
          "internalType": "enum Cases.ParticipantCategory",
          "name": "category",
          "type": "uint8"
        },
        {
          "indexed": false,
          "internalType": "bytes32",
          "name": "dataHash",
          "type": "bytes32"
        },
        {
          "indexed": false,
          "internalType": "bytes",
          "name": "data",
          "type": "bytes"
        }
      ],
      "name": "NewParticipantInCase",
      "type": "event"
    },
    {
      "inputs": [
        {
          "internalType": "uint256",
          "name": "_caseId",
          "type": "uint256"
        }
      ],
      "name": "addCase",
      "outputs": [],
      "stateMutability": "nonpayable",
      "type": "function"
    },
    {
      "inputs": [
        {
          "internalType": "uint256",
          "name": "_caseId",
          "type": "uint256"
        },
        {
          "components": [
            {
              "internalType": "uint48",
              "name": "evidenceId",
              "type": "uint48"
            },
            {
              "internalType": "enum Cases.EvidenceCategory",
              "name": "category",
              "type": "uint8"
            },
            {
              "internalType": "bytes",
              "name": "data",
              "type": "bytes"
            },
            {
              "internalType": "bytes",
              "name": "signature",
              "type": "bytes"
            }
          ],
          "internalType": "struct Cases.Evidence",
          "name": "_evidence",
          "type": "tuple"
        },
        {
          "internalType": "bytes32",
          "name": "_dataHash",
          "type": "bytes32"
        }
      ],
      "name": "addEvidence",
      "outputs": [],
      "stateMutability": "nonpayable",
      "type": "function"
    },
    {
      "inputs": [
        {
          "internalType": "uint256",
          "name": "_caseId",
          "type": "uint256"
        },
        {
          "internalType": "address",
          "name": "_officer",
          "type": "address"
        }
      ],
      "name": "addOfficerInCase",
      "outputs": [],
      "stateMutability": "nonpayable",
      "type": "function"
    },
    {
      "inputs": [
        {
          "internalType": "uint256",
          "name": "_caseId",
          "type": "uint256"
        },
        {
          "components": [
            {
              "internalType": "uint48",
              "name": "suspectId",
              "type": "uint48"
            },
            {
              "internalType": "enum Cases.ParticipantCategory",
              "name": "category",
              "type": "uint8"
            },
            {
              "internalType": "bytes",
              "name": "data",
              "type": "bytes"
            },
            {
              "internalType": "bytes",
              "name": "signature",
              "type": "bytes"
            }
          ],
          "internalType": "struct Cases.Participant",
          "name": "_participant",
          "type": "tuple"
        },
        {
          "internalType": "bytes32",
          "name": "_dataHash",
          "type": "bytes32"
        }
      ],
      "name": "addParticipant",
      "outputs": [],
      "stateMutability": "nonpayable",
      "type": "function"
    },
    {
      "inputs": [],
      "name": "domainSeparator",
      "outputs": [
        {
          "internalType": "bytes32",
          "name": "",
          "type": "bytes32"
        }
      ],
      "stateMutability": "view",
      "type": "function"
    },
    {
      "inputs": [],
      "name": "eip712Domain",
      "outputs": [
        {
          "internalType": "bytes1",
          "name": "fields",
          "type": "bytes1"
        },
        {
          "internalType": "string",
          "name": "name",
          "type": "string"
        },
        {
          "internalType": "string",
          "name": "version",
          "type": "string"
        },
        {
          "internalType": "uint256",
          "name": "chainId",
          "type": "uint256"
        },
        {
          "internalType": "address",
          "name": "verifyingContract",
          "type": "address"
        },
        {
          "internalType": "bytes32",
          "name": "salt",
          "type": "bytes32"
        },
        {
          "internalType": "uint256[]",
          "name": "extensions",
          "type": "uint256[]"
        }
      ],
      "stateMutability": "view",
      "type": "function"
    },
    {
      "inputs": [
        {
          "internalType": "uint256",
          "name": "_caseId",
          "type": "uint256"
        },
        {
          "internalType": "enum Cases.CaseStatus",
          "name": "_status",
          "type": "uint8"
        }
      ],
      "name": "updateCaseStatus",
      "outputs": [],
      "stateMutability": "nonpayable",
      "type": "function"
    }
  ],
  "bytecode": {
    "object": "0x6101606040523480156200001257600080fd5b5060405162001856380380620018568339810160408190526200003591620001ca565b6040805180820182526005815264436173657360d81b602080830191909152825180840190935260018352603160f81b90830152906200007782600062000145565b610120526200008881600162000145565b61014052815160208084019190912060e052815190820120610100524660a0526200011660e05161010051604080517f8b73c3c69bb8fe3d512ecc4cf759cc79239f7b179b0ffacaa9a75d522b39400f60208201529081019290925260608201524660808201523060a082015260009060c00160405160208183030381529060405280519060200120905090565b60805250503060c052600280546001600160a01b0319166001600160a01b0392909216919091179055620003e2565b600060208351101562000165576200015d836200017e565b905062000178565b81620001728482620002a1565b5060ff90505b92915050565b600080829050601f81511115620001b5578260405163305a27a960e01b8152600401620001ac91906200036d565b60405180910390fd5b8051620001c282620003bd565b179392505050565b600060208284031215620001dd57600080fd5b81516001600160a01b0381168114620001f557600080fd5b9392505050565b634e487b7160e01b600052604160045260246000fd5b600181811c908216806200022757607f821691505b6020821081036200024857634e487b7160e01b600052602260045260246000fd5b50919050565b601f8211156200029c57600081815260208120601f850160051c81016020861015620002775750805b601f850160051c820191505b81811015620002985782815560010162000283565b5050505b505050565b81516001600160401b03811115620002bd57620002bd620001fc565b620002d581620002ce845462000212565b846200024e565b602080601f8311600181146200030d5760008415620002f45750858301515b600019600386901b1c1916600185901b17855562000298565b600085815260208120601f198616915b828110156200033e578886015182559484019460019091019084016200031d565b50858210156200035d5787850151600019600388901b60f8161c191681555b5050505050600190811b01905550565b600060208083528351808285015260005b818110156200039c578581018301518582016040015282016200037e565b506000604082860101526040601f19601f8301168501019250505092915050565b80516020808301519190811015620002485760001960209190910360031b1b16919050565b60805160a05160c05160e0516101005161012051610140516114196200043d60003960006106ee015260006106c401526000610acf01526000610aa701526000610a0201526000610a2c01526000610a5601526114196000f3fe608060405234801561001057600080fd5b506004361061007d5760003560e01c806380bb89641161005b57806380bb8964146100bd57806384b0196e146100d05780638ca767ae146100f4578063f698da251461010757600080fd5b80630bccd0721461008257806310b0a5b81461009757806352f89920146100aa575b600080fd5b610095610090366004610e06565b61011d565b005b6100956100a5366004610f06565b610252565b6100956100b8366004610fd3565b61039a565b6100956100cb366004611040565b6104cd565b6100d86106b6565b6040516100eb97969594939291906110c2565b60405180910390f35b610095610102366004611158565b61073e565b61010f6108a1565b6040519081526020016100eb565b600254604080516304c56ef760e21b815290516001600160a01b03909216916391d14854918391631315bbdc916004808201926020929091908290030181865afa15801561016f573d6000803e3d6000fd5b505050506040513d601f19601f820116820180604052508101906101939190611181565b6040516001600160e01b031960e084901b1681526004810191909152336024820152604401602060405180830381865afa1580156101d5573d6000803e3d6000fd5b505050506040513d601f19601f820116820180604052508101906101f9919061119a565b61020257600080fd5b600081815260036020908152604091829020805460ff19168155915183815233917f547a98d8bef4d18f5a81dace5b57a54dfe3ec37e5492d78c667f7c4a7da5f5ed910160405180910390a25050565b600061026183604001516108b0565b9050808214610282576040516257c03760e51b815260040160405180910390fd5b6102988360600151610293836108e0565b610913565b600084815260036020818152604083208201805460018101825590845292819020865193909202909101805465ffffffffffff19811665ffffffffffff909416938417825591860151869391929091839166ffffffffffffff191617660100000000000083600681111561030e5761030e6111c3565b0217905550604082015160018201906103279082611262565b506060820151600282019061033c9082611262565b505050336001600160a01b03167f69b52e2ad460aa2776ae9efebda2c31f9fe4a63b0611075ec0a04560d6aa8116858560000151866020015185886040015160405161038c959493929190611322565b60405180910390a250505050565b60006103a983604001516108b0565b90508082146103ca576040516257c03760e51b815260040160405180910390fd5b6103db8360600151610293836108e0565b60008481526003602081815260408320600201805460018101825590845292819020865193830201805465ffffffffffff90941665ffffffffffff1985168117825591870151879491939092849266ffffffffffffff19161790660100000000000090849081111561044f5761044f6111c3565b0217905550604082015160018201906104689082611262565b506060820151600282019061047d9082611262565b505050336001600160a01b03167f7153f9d2e2bb4445c3d8dd41dfb36c6795681042725c270b146e1319e3156c05858560000151866020015185886040015160405161038c959493929190611370565b600254604080516304c56ef760e21b815290516001600160a01b03909216916391d14854918391631315bbdc916004808201926020929091908290030181865afa15801561051f573d6000803e3d6000fd5b505050506040513d601f19601f820116820180604052508101906105439190611181565b6040516001600160e01b031960e084901b1681526004810191909152336024820152604401602060405180830381865afa158015610585573d6000803e3d6000fd5b505050506040513d601f19601f820116820180604052508101906105a9919061119a565b6105b257600080fd5b60025460405163a20ad55f60e01b81526001600160a01b0383811660048301529091169063a20ad55f90602401602060405180830381865afa1580156105fc573d6000803e3d6000fd5b505050506040513d601f19601f82011682018060405250810190610620919061119a565b1561063e5760405163546c2b3d60e11b815260040160405180910390fd5b600082815260036020908152604080832060019081018054918201815584529282902090920180546001600160a01b0319166001600160a01b038516908117909155915184815233917fe60b89676a239d4f8e5a176fd3280ff0d590713fdf60a3afca4d8c657d06e360910160405180910390a35050565b6000606080828080836106e97f000000000000000000000000000000000000000000000000000000000000000083610949565b6107147f00000000000000000000000000000000000000000000000000000000000000006001610949565b60408051600080825260208201909252600f60f81b9b939a50919850469750309650945092509050565b600254604080516304c56ef760e21b815290516001600160a01b03909216916391d14854918391631315bbdc916004808201926020929091908290030181865afa158015610790573d6000803e3d6000fd5b505050506040513d601f19601f820116820180604052508101906107b49190611181565b6040516001600160e01b031960e084901b1681526004810191909152336024820152604401602060405180830381865afa1580156107f6573d6000803e3d6000fd5b505050506040513d601f19601f8201168201806040525081019061081a919061119a565b61082357600080fd5b6000828152600360205260409020805460ff811691839160ff19166001836002811115610852576108526111c3565b0217905550336001600160a01b03167f646df2db9d1555aa5dfa4a33f4b4cb6c4cff20997255a61d88eb542424acbfbc848385604051610894939291906113a7565b60405180910390a2505050565b60006108ab6109f5565b905090565b6000816040516020016108c391906113d0565b604051602081830303815290604052805190602001209050919050565b600061090d6108ed6109f5565b8360405161190160f01b8152600281019290925260228201526042902090565b92915050565b3361091e8284610b20565b6001600160a01b03160361094557604051638baa579f60e01b815260040160405180910390fd5b5050565b606060ff83146109635761095c83610b44565b905061090d565b81805461096f906111d9565b80601f016020809104026020016040519081016040528092919081815260200182805461099b906111d9565b80156109e85780601f106109bd576101008083540402835291602001916109e8565b820191906000526020600020905b8154815290600101906020018083116109cb57829003601f168201915b5050505050905092915050565b6000306001600160a01b037f000000000000000000000000000000000000000000000000000000000000000016148015610a4e57507f000000000000000000000000000000000000000000000000000000000000000046145b15610a7857507f000000000000000000000000000000000000000000000000000000000000000090565b6108ab604080517f8b73c3c69bb8fe3d512ecc4cf759cc79239f7b179b0ffacaa9a75d522b39400f60208201527f0000000000000000000000000000000000000000000000000000000000000000918101919091527f000000000000000000000000000000000000000000000000000000000000000060608201524660808201523060a082015260009060c00160405160208183030381529060405280519060200120905090565b6000806000610b2f8585610b83565b91509150610b3c81610bc8565b509392505050565b60606000610b5183610d1a565b604080516020808252818301909252919250600091906020820181803683375050509182525060208101929092525090565b6000808251604103610bb95760208301516040840151606085015160001a610bad87828585610d42565b94509450505050610bc1565b506000905060025b9250929050565b6000816004811115610bdc57610bdc6111c3565b03610be45750565b6001816004811115610bf857610bf86111c3565b03610c4a5760405162461bcd60e51b815260206004820152601860248201527f45434453413a20696e76616c6964207369676e6174757265000000000000000060448201526064015b60405180910390fd5b6002816004811115610c5e57610c5e6111c3565b03610cab5760405162461bcd60e51b815260206004820152601f60248201527f45434453413a20696e76616c6964207369676e6174757265206c656e677468006044820152606401610c41565b6003816004811115610cbf57610cbf6111c3565b03610d175760405162461bcd60e51b815260206004820152602260248201527f45434453413a20696e76616c6964207369676e6174757265202773272076616c604482015261756560f01b6064820152608401610c41565b50565b600060ff8216601f81111561090d57604051632cd44ac360e21b815260040160405180910390fd5b6000807f7fffffffffffffffffffffffffffffff5d576e7357a4501ddfe92f46681b20a0831115610d795750600090506003610dfd565b6040805160008082526020820180845289905260ff881692820192909252606081018690526080810185905260019060a0016020604051602081039080840390855afa158015610dcd573d6000803e3d6000fd5b5050604051601f1901519150506001600160a01b038116610df657600060019250925050610dfd565b9150600090505b94509492505050565b600060208284031215610e1857600080fd5b5035919050565b634e487b7160e01b600052604160045260246000fd5b6040516080810167ffffffffffffffff81118282101715610e5857610e58610e1f565b60405290565b803565ffffffffffff81168114610e7457600080fd5b919050565b600082601f830112610e8a57600080fd5b813567ffffffffffffffff80821115610ea557610ea5610e1f565b604051601f8301601f19908116603f01168101908282118183101715610ecd57610ecd610e1f565b81604052838152866020858801011115610ee657600080fd5b836020870160208301376000602085830101528094505050505092915050565b600080600060608486031215610f1b57600080fd5b83359250602084013567ffffffffffffffff80821115610f3a57600080fd5b9085019060808288031215610f4e57600080fd5b610f56610e35565b610f5f83610e5e565b8152602083013560078110610f7357600080fd5b6020820152604083013582811115610f8a57600080fd5b610f9689828601610e79565b604083015250606083013582811115610fae57600080fd5b610fba89828601610e79565b6060830152509497949650505050604092909201359150565b600080600060608486031215610fe857600080fd5b83359250602084013567ffffffffffffffff8082111561100757600080fd5b908501906080828803121561101b57600080fd5b611023610e35565b61102c83610e5e565b8152602083013560048110610f7357600080fd5b6000806040838503121561105357600080fd5b8235915060208301356001600160a01b038116811461107157600080fd5b809150509250929050565b6000815180845260005b818110156110a257602081850181015186830182015201611086565b506000602082860101526020601f19601f83011685010191505092915050565b60ff60f81b881681526000602060e0818401526110e260e084018a61107c565b83810360408501526110f4818a61107c565b606085018990526001600160a01b038816608086015260a0850187905284810360c0860152855180825283870192509083019060005b818110156111465783518352928401929184019160010161112a565b50909c9b505050505050505050505050565b6000806040838503121561116b57600080fd5b8235915060208301356003811061107157600080fd5b60006020828403121561119357600080fd5b5051919050565b6000602082840312156111ac57600080fd5b815180151581146111bc57600080fd5b9392505050565b634e487b7160e01b600052602160045260246000fd5b600181811c908216806111ed57607f821691505b60208210810361120d57634e487b7160e01b600052602260045260246000fd5b50919050565b601f82111561125d57600081815260208120601f850160051c8101602086101561123a5750805b601f850160051c820191505b8181101561125957828155600101611246565b5050505b505050565b815167ffffffffffffffff81111561127c5761127c610e1f565b6112908161128a84546111d9565b84611213565b602080601f8311600181146112c557600084156112ad5750858301515b600019600386901b1c1916600185901b178555611259565b600085815260208120601f198616915b828110156112f4578886015182559484019460019091019084016112d5565b50858210156113125787850151600019600388901b60f8161c191681555b5050505050600190811b01905550565b85815265ffffffffffff85166020820152600060078510611345576113456111c3565b84604083015283606083015260a0608083015261136560a083018461107c565b979650505050505050565b85815265ffffffffffff85166020820152600060048510611345576113456111c3565b600381106113a3576113a36111c3565b9052565b838152606081016113bb6020830185611393565b6113c86040830184611393565b949350505050565b6020815260006111bc602083018461107c56fea2646970667358221220b330ab58cafb5d8f50ce043e1478112df0139e8de16cc609f970bf8328e7fd3164736f6c63430008150033",
    "linkReferences": {}
  },
  "methodIdentifiers": {
    "addCase(uint256)": "0bccd072",
    "addEvidence(uint256,(uint48,uint8,bytes,bytes),bytes32)": "10b0a5b8",
    "addOfficerInCase(uint256,address)": "80bb8964",
    "addParticipant(uint256,(uint48,uint8,bytes,bytes),bytes32)": "52f89920",
    "domainSeparator()": "f698da25",
    "eip712Domain()": "84b0196e",
    "updateCaseStatus(uint256,uint8)": "8ca767ae"
  },
  "id": 29
}