{
  "abi": [
    {
      "inputs": [
        {
          "internalType": "address",
          "name": "_officersContract",
          "type": "address"
        }
      ],
      "stateMutability": "nonpayable",
      "type": "constructor"
    },
    {
      "inputs": [],
      "name": "InvalidHash",
      "type": "error"
    },
    {
      "inputs": [],
      "name": "InvalidOfficer",
      "type": "error"
    },
    {
      "inputs": [],
      "name": "InvalidShortString",
      "type": "error"
    },
    {
      "inputs": [],
      "name": "InvalidSignature",
      "type": "error"
    },
    {
      "inputs": [
        {
          "internalType": "string",
          "name": "str",
          "type": "string"
        }
      ],
      "name": "StringTooLong",
      "type": "error"
    },
    {
      "anonymous": false,
      "inputs": [
        {
          "indexed": false,
          "internalType": "uint256",
          "name": "caseId",
          "type": "uint256"
        },
        {
          "indexed": true,
          "internalType": "address",
          "name": "initiator",
          "type": "address"
        },
        {
          "indexed": true,
          "internalType": "address",
          "name": "officer",
          "type": "address"
        }
      ],
      "name": "AddOfficer",
      "type": "event"
    },
    {
      "anonymous": false,
      "inputs": [
        {
          "indexed": false,
          "internalType": "uint256",
          "name": "caseId",
          "type": "uint256"
        },
        {
          "indexed": true,
          "internalType": "address",
          "name": "initiator",
          "type": "address"
        },
        {
          "indexed": false,
          "internalType": "enum Cases.CaseStatus",
          "name": "oldStatus",
          "type": "uint8"
        },
        {
          "indexed": false,
          "internalType": "enum Cases.CaseStatus",
          "name": "newStatus",
          "type": "uint8"
        }
      ],
      "name": "CaseStatusUpdated",
      "type": "event"
    },
    {
      "anonymous": false,
      "inputs": [],
      "name": "EIP712DomainChanged",
      "type": "event"
    },
    {
      "anonymous": false,
      "inputs": [
        {
          "indexed": false,
          "internalType": "uint256",
          "name": "caseId",
          "type": "uint256"
        },
        {
          "indexed": true,
          "internalType": "address",
          "name": "initiator",
          "type": "address"
        }
      ],
      "name": "NewCase",
      "type": "event"
    },
    {
      "anonymous": false,
      "inputs": [
        {
          "indexed": false,
          "internalType": "uint256",
          "name": "caseId",
          "type": "uint256"
        },
        {
          "indexed": true,
          "internalType": "address",
          "name": "initiator",
          "type": "address"
        },
        {
          "indexed": false,
          "internalType": "uint48",
          "name": "evidenceId",
          "type": "uint48"
        },
        {
          "indexed": false,
          "internalType": "enum Cases.EvidenceCategory",
          "name": "category",
          "type": "uint8"
        },
        {
          "indexed": false,
          "internalType": "bytes32",
          "name": "dataHash",
          "type": "bytes32"
        },
        {
          "indexed": false,
          "internalType": "bytes",
          "name": "data",
          "type": "bytes"
        }
      ],
      "name": "NewEvidenceInCase",
      "type": "event"
    },
    {
      "anonymous": false,
      "inputs": [
        {
          "indexed": false,
          "internalType": "uint256",
          "name": "caseId",
          "type": "uint256"
        },
        {
          "indexed": true,
          "internalType": "address",
          "name": "initiator",
          "type": "address"
        },
        {
          "indexed": false,
          "internalType": "uint48",
          "name": "suspectId",
          "type": "uint48"
        },
        {
          "indexed": false,
          "internalType": "enum Cases.ParticipantCategory",
          "name": "category",
          "type": "uint8"
        },
        {
          "indexed": false,
          "internalType": "bytes32",
          "name": "dataHash",
          "type": "bytes32"
        },
        {
          "indexed": false,
          "internalType": "bytes",
          "name": "data",
          "type": "bytes"
        }
      ],
      "name": "NewParticipantInCase",
      "type": "event"
    },
    {
      "inputs": [
        {
          "internalType": "uint256",
          "name": "_caseId",
          "type": "uint256"
        }
      ],
      "name": "addCase",
      "outputs": [],
      "stateMutability": "nonpayable",
      "type": "function"
    },
    {
      "inputs": [
        {
          "internalType": "uint256",
          "name": "_caseId",
          "type": "uint256"
        },
        {
          "components": [
            {
              "internalType": "uint48",
              "name": "evidenceId",
              "type": "uint48"
            },
            {
              "internalType": "enum Cases.EvidenceCategory",
              "name": "category",
              "type": "uint8"
            },
            {
              "internalType": "bytes",
              "name": "data",
              "type": "bytes"
            },
            {
              "internalType": "bytes",
              "name": "signature",
              "type": "bytes"
            }
          ],
          "internalType": "struct Cases.Evidence",
          "name": "_evidence",
          "type": "tuple"
        },
        {
          "internalType": "bytes32",
          "name": "_dataHash",
          "type": "bytes32"
        }
      ],
      "name": "addEvidence",
      "outputs": [],
      "stateMutability": "nonpayable",
      "type": "function"
    },
    {
      "inputs": [
        {
          "internalType": "uint256",
          "name": "_caseId",
          "type": "uint256"
        },
        {
          "internalType": "address",
          "name": "_officer",
          "type": "address"
        }
      ],
      "name": "addOfficerInCase",
      "outputs": [],
      "stateMutability": "nonpayable",
      "type": "function"
    },
    {
      "inputs": [
        {
          "internalType": "uint256",
          "name": "_caseId",
          "type": "uint256"
        },
        {
          "components": [
            {
              "internalType": "uint48",
              "name": "suspectId",
              "type": "uint48"
            },
            {
              "internalType": "enum Cases.ParticipantCategory",
              "name": "category",
              "type": "uint8"
            },
            {
              "internalType": "bytes",
              "name": "data",
              "type": "bytes"
            },
            {
              "internalType": "bytes",
              "name": "signature",
              "type": "bytes"
            }
          ],
          "internalType": "struct Cases.Participant",
          "name": "_participant",
          "type": "tuple"
        },
        {
          "internalType": "bytes32",
          "name": "_dataHash",
          "type": "bytes32"
        }
      ],
      "name": "addParticipant",
      "outputs": [],
      "stateMutability": "nonpayable",
      "type": "function"
    },
    {
      "inputs": [],
      "name": "domainSeparator",
      "outputs": [
        {
          "internalType": "bytes32",
          "name": "",
          "type": "bytes32"
        }
      ],
      "stateMutability": "view",
      "type": "function"
    },
    {
      "inputs": [],
      "name": "eip712Domain",
      "outputs": [
        {
          "internalType": "bytes1",
          "name": "fields",
          "type": "bytes1"
        },
        {
          "internalType": "string",
          "name": "name",
          "type": "string"
        },
        {
          "internalType": "string",
          "name": "version",
          "type": "string"
        },
        {
          "internalType": "uint256",
          "name": "chainId",
          "type": "uint256"
        },
        {
          "internalType": "address",
          "name": "verifyingContract",
          "type": "address"
        },
        {
          "internalType": "bytes32",
          "name": "salt",
          "type": "bytes32"
        },
        {
          "internalType": "uint256[]",
          "name": "extensions",
          "type": "uint256[]"
        }
      ],
      "stateMutability": "view",
      "type": "function"
    },
    {
      "inputs": [
        {
          "internalType": "bytes32",
          "name": "calculatedHash",
          "type": "bytes32"
        }
      ],
      "name": "hashTypedDataV4",
      "outputs": [
        {
          "internalType": "bytes32",
          "name": "",
          "type": "bytes32"
        }
      ],
      "stateMutability": "view",
      "type": "function"
    },
    {
      "inputs": [
        {
          "internalType": "uint256",
          "name": "_caseId",
          "type": "uint256"
        },
        {
          "internalType": "enum Cases.CaseStatus",
          "name": "_status",
          "type": "uint8"
        }
      ],
      "name": "updateCaseStatus",
      "outputs": [],
      "stateMutability": "nonpayable",
      "type": "function"
    }
  ],
  "bytecode": {
    "object": "0x6101606040523480156200001257600080fd5b506040516200187b3803806200187b8339810160408190526200003591620001ca565b6040805180820182526005815264436173657360d81b602080830191909152825180840190935260018352603160f81b90830152906200007782600062000145565b610120526200008881600162000145565b61014052815160208084019190912060e052815190820120610100524660a0526200011660e05161010051604080517f8b73c3c69bb8fe3d512ecc4cf759cc79239f7b179b0ffacaa9a75d522b39400f60208201529081019290925260608201524660808201523060a082015260009060c00160405160208183030381529060405280519060200120905090565b60805250503060c052600280546001600160a01b0319166001600160a01b0392909216919091179055620003e2565b600060208351101562000165576200015d836200017e565b905062000178565b81620001728482620002a1565b5060ff90505b92915050565b600080829050601f81511115620001b5578260405163305a27a960e01b8152600401620001ac91906200036d565b60405180910390fd5b8051620001c282620003bd565b179392505050565b600060208284031215620001dd57600080fd5b81516001600160a01b0381168114620001f557600080fd5b9392505050565b634e487b7160e01b600052604160045260246000fd5b600181811c908216806200022757607f821691505b6020821081036200024857634e487b7160e01b600052602260045260246000fd5b50919050565b601f8211156200029c57600081815260208120601f850160051c81016020861015620002775750805b601f850160051c820191505b81811015620002985782815560010162000283565b5050505b505050565b81516001600160401b03811115620002bd57620002bd620001fc565b620002d581620002ce845462000212565b846200024e565b602080601f8311600181146200030d5760008415620002f45750858301515b600019600386901b1c1916600185901b17855562000298565b600085815260208120601f198616915b828110156200033e578886015182559484019460019091019084016200031d565b50858210156200035d5787850151600019600388901b60f8161c191681555b5050505050600190811b01905550565b600060208083528351808285015260005b818110156200039c578581018301518582016040015282016200037e565b506000604082860101526040601f19601f8301168501019250505092915050565b80516020808301519190811015620002485760001960209190910360031b1b16919050565b60805160a05160c05160e05161010051610120516101405161143e6200043d6000396000610719015260006106ef01526000610af401526000610acc01526000610a2701526000610a5101526000610a7b015261143e6000f3fe608060405234801561001057600080fd5b50600436106100885760003560e01c806380bb89641161005b57806380bb8964146100ee57806384b0196e146101015780638ca767ae1461011c578063f698da251461012f57600080fd5b80630bccd0721461008d57806310b0a5b8146100a25780634980f288146100b557806352f89920146100db575b600080fd5b6100a061009b366004610e2b565b610137565b005b6100a06100b0366004610f2b565b61026c565b6100c86100c3366004610e2b565b6103b4565b6040519081526020015b60405180910390f35b6100a06100e9366004610ff8565b6103c5565b6100a06100fc366004611065565b6104f8565b6101096106e1565b6040516100d297969594939291906110e7565b6100a061012a36600461117d565b610769565b6100c86108cc565b600254604080516304c56ef760e21b815290516001600160a01b03909216916391d14854918391631315bbdc916004808201926020929091908290030181865afa158015610189573d6000803e3d6000fd5b505050506040513d601f19601f820116820180604052508101906101ad91906111a6565b6040516001600160e01b031960e084901b1681526004810191909152336024820152604401602060405180830381865afa1580156101ef573d6000803e3d6000fd5b505050506040513d601f19601f8201168201806040525081019061021391906111bf565b61021c57600080fd5b600081815260036020908152604091829020805460ff19168155915183815233917f547a98d8bef4d18f5a81dace5b57a54dfe3ec37e5492d78c667f7c4a7da5f5ed910160405180910390a25050565b600061027b83604001516108db565b905080821461029c576040516257c03760e51b815260040160405180910390fd5b6102b283606001516102ad8361090b565b610938565b600084815260036020818152604083208201805460018101825590845292819020865193909202909101805465ffffffffffff19811665ffffffffffff909416938417825591860151869391929091839166ffffffffffffff1916176601000000000000836006811115610328576103286111e8565b0217905550604082015160018201906103419082611287565b50606082015160028201906103569082611287565b505050336001600160a01b03167f69b52e2ad460aa2776ae9efebda2c31f9fe4a63b0611075ec0a04560d6aa811685856000015186602001518588604001516040516103a6959493929190611347565b60405180910390a250505050565b60006103bf8261090b565b92915050565b60006103d483604001516108db565b90508082146103f5576040516257c03760e51b815260040160405180910390fd5b61040683606001516102ad8361090b565b60008481526003602081815260408320600201805460018101825590845292819020865193830201805465ffffffffffff90941665ffffffffffff1985168117825591870151879491939092849266ffffffffffffff19161790660100000000000090849081111561047a5761047a6111e8565b0217905550604082015160018201906104939082611287565b50606082015160028201906104a89082611287565b505050336001600160a01b03167f7153f9d2e2bb4445c3d8dd41dfb36c6795681042725c270b146e1319e3156c0585856000015186602001518588604001516040516103a6959493929190611395565b600254604080516304c56ef760e21b815290516001600160a01b03909216916391d14854918391631315bbdc916004808201926020929091908290030181865afa15801561054a573d6000803e3d6000fd5b505050506040513d601f19601f8201168201806040525081019061056e91906111a6565b6040516001600160e01b031960e084901b1681526004810191909152336024820152604401602060405180830381865afa1580156105b0573d6000803e3d6000fd5b505050506040513d601f19601f820116820180604052508101906105d491906111bf565b6105dd57600080fd5b60025460405163a20ad55f60e01b81526001600160a01b0383811660048301529091169063a20ad55f90602401602060405180830381865afa158015610627573d6000803e3d6000fd5b505050506040513d601f19601f8201168201806040525081019061064b91906111bf565b156106695760405163546c2b3d60e11b815260040160405180910390fd5b600082815260036020908152604080832060019081018054918201815584529282902090920180546001600160a01b0319166001600160a01b038516908117909155915184815233917fe60b89676a239d4f8e5a176fd3280ff0d590713fdf60a3afca4d8c657d06e360910160405180910390a35050565b6000606080828080836107147f00000000000000000000000000000000000000000000000000000000000000008361096e565b61073f7f0000000000000000000000000000000000000000000000000000000000000000600161096e565b60408051600080825260208201909252600f60f81b9b939a50919850469750309650945092509050565b600254604080516304c56ef760e21b815290516001600160a01b03909216916391d14854918391631315bbdc916004808201926020929091908290030181865afa1580156107bb573d6000803e3d6000fd5b505050506040513d601f19601f820116820180604052508101906107df91906111a6565b6040516001600160e01b031960e084901b1681526004810191909152336024820152604401602060405180830381865afa158015610821573d6000803e3d6000fd5b505050506040513d601f19601f8201168201806040525081019061084591906111bf565b61084e57600080fd5b6000828152600360205260409020805460ff811691839160ff1916600183600281111561087d5761087d6111e8565b0217905550336001600160a01b03167f646df2db9d1555aa5dfa4a33f4b4cb6c4cff20997255a61d88eb542424acbfbc8483856040516108bf939291906113cc565b60405180910390a2505050565b60006108d6610a1a565b905090565b6000816040516020016108ee91906113f5565b604051602081830303815290604052805190602001209050919050565b60006103bf610918610a1a565b8360405161190160f01b8152600281019290925260228201526042902090565b336109438284610b45565b6001600160a01b03160361096a57604051638baa579f60e01b815260040160405180910390fd5b5050565b606060ff83146109885761098183610b69565b90506103bf565b818054610994906111fe565b80601f01602080910402602001604051908101604052809291908181526020018280546109c0906111fe565b8015610a0d5780601f106109e257610100808354040283529160200191610a0d565b820191906000526020600020905b8154815290600101906020018083116109f057829003601f168201915b5050505050905092915050565b6000306001600160a01b037f000000000000000000000000000000000000000000000000000000000000000016148015610a7357507f000000000000000000000000000000000000000000000000000000000000000046145b15610a9d57507f000000000000000000000000000000000000000000000000000000000000000090565b6108d6604080517f8b73c3c69bb8fe3d512ecc4cf759cc79239f7b179b0ffacaa9a75d522b39400f60208201527f0000000000000000000000000000000000000000000000000000000000000000918101919091527f000000000000000000000000000000000000000000000000000000000000000060608201524660808201523060a082015260009060c00160405160208183030381529060405280519060200120905090565b6000806000610b548585610ba8565b91509150610b6181610bed565b509392505050565b60606000610b7683610d3f565b604080516020808252818301909252919250600091906020820181803683375050509182525060208101929092525090565b6000808251604103610bde5760208301516040840151606085015160001a610bd287828585610d67565b94509450505050610be6565b506000905060025b9250929050565b6000816004811115610c0157610c016111e8565b03610c095750565b6001816004811115610c1d57610c1d6111e8565b03610c6f5760405162461bcd60e51b815260206004820152601860248201527f45434453413a20696e76616c6964207369676e6174757265000000000000000060448201526064015b60405180910390fd5b6002816004811115610c8357610c836111e8565b03610cd05760405162461bcd60e51b815260206004820152601f60248201527f45434453413a20696e76616c6964207369676e6174757265206c656e677468006044820152606401610c66565b6003816004811115610ce457610ce46111e8565b03610d3c5760405162461bcd60e51b815260206004820152602260248201527f45434453413a20696e76616c6964207369676e6174757265202773272076616c604482015261756560f01b6064820152608401610c66565b50565b600060ff8216601f8111156103bf57604051632cd44ac360e21b815260040160405180910390fd5b6000807f7fffffffffffffffffffffffffffffff5d576e7357a4501ddfe92f46681b20a0831115610d9e5750600090506003610e22565b6040805160008082526020820180845289905260ff881692820192909252606081018690526080810185905260019060a0016020604051602081039080840390855afa158015610df2573d6000803e3d6000fd5b5050604051601f1901519150506001600160a01b038116610e1b57600060019250925050610e22565b9150600090505b94509492505050565b600060208284031215610e3d57600080fd5b5035919050565b634e487b7160e01b600052604160045260246000fd5b6040516080810167ffffffffffffffff81118282101715610e7d57610e7d610e44565b60405290565b803565ffffffffffff81168114610e9957600080fd5b919050565b600082601f830112610eaf57600080fd5b813567ffffffffffffffff80821115610eca57610eca610e44565b604051601f8301601f19908116603f01168101908282118183101715610ef257610ef2610e44565b81604052838152866020858801011115610f0b57600080fd5b836020870160208301376000602085830101528094505050505092915050565b600080600060608486031215610f4057600080fd5b83359250602084013567ffffffffffffffff80821115610f5f57600080fd5b9085019060808288031215610f7357600080fd5b610f7b610e5a565b610f8483610e83565b8152602083013560078110610f9857600080fd5b6020820152604083013582811115610faf57600080fd5b610fbb89828601610e9e565b604083015250606083013582811115610fd357600080fd5b610fdf89828601610e9e565b6060830152509497949650505050604092909201359150565b60008060006060848603121561100d57600080fd5b83359250602084013567ffffffffffffffff8082111561102c57600080fd5b908501906080828803121561104057600080fd5b611048610e5a565b61105183610e83565b8152602083013560048110610f9857600080fd5b6000806040838503121561107857600080fd5b8235915060208301356001600160a01b038116811461109657600080fd5b809150509250929050565b6000815180845260005b818110156110c7576020818501810151868301820152016110ab565b506000602082860101526020601f19601f83011685010191505092915050565b60ff60f81b881681526000602060e08184015261110760e084018a6110a1565b8381036040850152611119818a6110a1565b606085018990526001600160a01b038816608086015260a0850187905284810360c0860152855180825283870192509083019060005b8181101561116b5783518352928401929184019160010161114f565b50909c9b505050505050505050505050565b6000806040838503121561119057600080fd5b8235915060208301356003811061109657600080fd5b6000602082840312156111b857600080fd5b5051919050565b6000602082840312156111d157600080fd5b815180151581146111e157600080fd5b9392505050565b634e487b7160e01b600052602160045260246000fd5b600181811c9082168061121257607f821691505b60208210810361123257634e487b7160e01b600052602260045260246000fd5b50919050565b601f82111561128257600081815260208120601f850160051c8101602086101561125f5750805b601f850160051c820191505b8181101561127e5782815560010161126b565b5050505b505050565b815167ffffffffffffffff8111156112a1576112a1610e44565b6112b5816112af84546111fe565b84611238565b602080601f8311600181146112ea57600084156112d25750858301515b600019600386901b1c1916600185901b17855561127e565b600085815260208120601f198616915b82811015611319578886015182559484019460019091019084016112fa565b50858210156113375787850151600019600388901b60f8161c191681555b5050505050600190811b01905550565b85815265ffffffffffff8516602082015260006007851061136a5761136a6111e8565b84604083015283606083015260a0608083015261138a60a08301846110a1565b979650505050505050565b85815265ffffffffffff8516602082015260006004851061136a5761136a6111e8565b600381106113c8576113c86111e8565b9052565b838152606081016113e060208301856113b8565b6113ed60408301846113b8565b949350505050565b6020815260006111e160208301846110a156fea2646970667358221220a24b0720e914f461f341d037aa4091ff97f5bd5fa749a8d7399ff8204e9a88ae64736f6c63430008150033",
    "linkReferences": {}
  },
  "methodIdentifiers": {
    "addCase(uint256)": "0bccd072",
    "addEvidence(uint256,(uint48,uint8,bytes,bytes),bytes32)": "10b0a5b8",
    "addOfficerInCase(uint256,address)": "80bb8964",
    "addParticipant(uint256,(uint48,uint8,bytes,bytes),bytes32)": "52f89920",
    "domainSeparator()": "f698da25",
    "eip712Domain()": "84b0196e",
    "hashTypedDataV4(bytes32)": "4980f288",
    "updateCaseStatus(uint256,uint8)": "8ca767ae"
  },
  "id": 30
}