{
  "abi": [
    {
      "inputs": [
        {
          "internalType": "address",
          "name": "_officersContract",
          "type": "address"
        }
      ],
      "stateMutability": "nonpayable",
      "type": "constructor"
    },
    {
      "inputs": [],
      "name": "InvalidCase",
      "type": "error"
    },
    {
      "inputs": [],
      "name": "InvalidHash",
      "type": "error"
    },
    {
      "inputs": [],
      "name": "InvalidOfficer",
      "type": "error"
    },
    {
      "inputs": [],
      "name": "InvalidShortString",
      "type": "error"
    },
    {
      "inputs": [],
      "name": "InvalidSignature",
      "type": "error"
    },
    {
      "inputs": [
        {
          "internalType": "string",
          "name": "str",
          "type": "string"
        }
      ],
      "name": "StringTooLong",
      "type": "error"
    },
    {
      "anonymous": false,
      "inputs": [
        {
          "indexed": false,
          "internalType": "uint256",
          "name": "caseId",
          "type": "uint256"
        },
        {
          "indexed": true,
          "internalType": "address",
          "name": "initiator",
          "type": "address"
        },
        {
          "indexed": true,
          "internalType": "address",
          "name": "officer",
          "type": "address"
        },
        {
          "indexed": false,
          "internalType": "uint256",
          "name": "caseSpecificOfficerId",
          "type": "uint256"
        }
      ],
      "name": "AddOfficer",
      "type": "event"
    },
    {
      "anonymous": false,
      "inputs": [
        {
          "indexed": false,
          "internalType": "uint256",
          "name": "caseId",
          "type": "uint256"
        },
        {
          "indexed": true,
          "internalType": "address",
          "name": "initiator",
          "type": "address"
        },
        {
          "indexed": false,
          "internalType": "enum Cases.CaseStatus",
          "name": "oldStatus",
          "type": "uint8"
        },
        {
          "indexed": false,
          "internalType": "enum Cases.CaseStatus",
          "name": "newStatus",
          "type": "uint8"
        }
      ],
      "name": "CaseStatusUpdated",
      "type": "event"
    },
    {
      "anonymous": false,
      "inputs": [],
      "name": "EIP712DomainChanged",
      "type": "event"
    },
    {
      "anonymous": false,
      "inputs": [
        {
          "indexed": false,
          "internalType": "uint256",
          "name": "caseId",
          "type": "uint256"
        },
        {
          "indexed": true,
          "internalType": "address",
          "name": "initiator",
          "type": "address"
        }
      ],
      "name": "NewCase",
      "type": "event"
    },
    {
      "anonymous": false,
      "inputs": [
        {
          "indexed": false,
          "internalType": "uint256",
          "name": "caseId",
          "type": "uint256"
        },
        {
          "indexed": true,
          "internalType": "address",
          "name": "initiator",
          "type": "address"
        },
        {
          "indexed": false,
          "internalType": "uint48",
          "name": "evidenceId",
          "type": "uint48"
        },
        {
          "indexed": false,
          "internalType": "enum Cases.EvidenceCategory",
          "name": "category",
          "type": "uint8"
        },
        {
          "indexed": false,
          "internalType": "bytes32",
          "name": "dataHash",
          "type": "bytes32"
        },
        {
          "indexed": false,
          "internalType": "bytes",
          "name": "data",
          "type": "bytes"
        }
      ],
      "name": "NewEvidenceInCase",
      "type": "event"
    },
    {
      "anonymous": false,
      "inputs": [
        {
          "indexed": false,
          "internalType": "uint256",
          "name": "caseId",
          "type": "uint256"
        },
        {
          "indexed": true,
          "internalType": "address",
          "name": "initiator",
          "type": "address"
        },
        {
          "indexed": false,
          "internalType": "uint48",
          "name": "suspectId",
          "type": "uint48"
        },
        {
          "indexed": false,
          "internalType": "enum Cases.ParticipantCategory",
          "name": "category",
          "type": "uint8"
        },
        {
          "indexed": false,
          "internalType": "bytes32",
          "name": "dataHash",
          "type": "bytes32"
        },
        {
          "indexed": false,
          "internalType": "bytes",
          "name": "data",
          "type": "bytes"
        }
      ],
      "name": "NewParticipantInCase",
      "type": "event"
    },
    {
      "anonymous": false,
      "inputs": [
        {
          "indexed": false,
          "internalType": "uint256",
          "name": "caseId",
          "type": "uint256"
        },
        {
          "indexed": true,
          "internalType": "address",
          "name": "initiator",
          "type": "address"
        },
        {
          "indexed": true,
          "internalType": "address",
          "name": "officer",
          "type": "address"
        },
        {
          "indexed": false,
          "internalType": "uint256",
          "name": "caseSpecificOfficerId",
          "type": "uint256"
        }
      ],
      "name": "RemoveOfficer",
      "type": "event"
    },
    {
      "inputs": [
        {
          "internalType": "uint256",
          "name": "_caseId",
          "type": "uint256"
        }
      ],
      "name": "addCase",
      "outputs": [],
      "stateMutability": "nonpayable",
      "type": "function"
    },
    {
      "inputs": [
        {
          "internalType": "uint256",
          "name": "_caseId",
          "type": "uint256"
        },
        {
          "internalType": "uint256",
          "name": "_caseSpecificOfficerId",
          "type": "uint256"
        },
        {
          "components": [
            {
              "internalType": "uint48",
              "name": "evidenceId",
              "type": "uint48"
            },
            {
              "internalType": "enum Cases.EvidenceCategory",
              "name": "category",
              "type": "uint8"
            },
            {
              "internalType": "bytes",
              "name": "data",
              "type": "bytes"
            },
            {
              "internalType": "bytes",
              "name": "signature",
              "type": "bytes"
            }
          ],
          "internalType": "struct Cases.Evidence",
          "name": "_evidence",
          "type": "tuple"
        },
        {
          "internalType": "bytes32",
          "name": "_dataHash",
          "type": "bytes32"
        }
      ],
      "name": "addEvidence",
      "outputs": [],
      "stateMutability": "nonpayable",
      "type": "function"
    },
    {
      "inputs": [
        {
          "internalType": "uint256",
          "name": "_caseId",
          "type": "uint256"
        },
        {
          "internalType": "address",
          "name": "_officer",
          "type": "address"
        }
      ],
      "name": "addOfficerInCase",
      "outputs": [],
      "stateMutability": "nonpayable",
      "type": "function"
    },
    {
      "inputs": [
        {
          "internalType": "uint256",
          "name": "_caseId",
          "type": "uint256"
        },
        {
          "internalType": "uint256",
          "name": "_caseSpecificOfficerId",
          "type": "uint256"
        },
        {
          "components": [
            {
              "internalType": "uint48",
              "name": "suspectId",
              "type": "uint48"
            },
            {
              "internalType": "enum Cases.ParticipantCategory",
              "name": "category",
              "type": "uint8"
            },
            {
              "internalType": "bytes",
              "name": "data",
              "type": "bytes"
            },
            {
              "internalType": "bytes",
              "name": "signature",
              "type": "bytes"
            }
          ],
          "internalType": "struct Cases.Participant",
          "name": "_participant",
          "type": "tuple"
        },
        {
          "internalType": "bytes32",
          "name": "_dataHash",
          "type": "bytes32"
        }
      ],
      "name": "addParticipant",
      "outputs": [],
      "stateMutability": "nonpayable",
      "type": "function"
    },
    {
      "inputs": [],
      "name": "domainSeparator",
      "outputs": [
        {
          "internalType": "bytes32",
          "name": "",
          "type": "bytes32"
        }
      ],
      "stateMutability": "view",
      "type": "function"
    },
    {
      "inputs": [],
      "name": "eip712Domain",
      "outputs": [
        {
          "internalType": "bytes1",
          "name": "fields",
          "type": "bytes1"
        },
        {
          "internalType": "string",
          "name": "name",
          "type": "string"
        },
        {
          "internalType": "string",
          "name": "version",
          "type": "string"
        },
        {
          "internalType": "uint256",
          "name": "chainId",
          "type": "uint256"
        },
        {
          "internalType": "address",
          "name": "verifyingContract",
          "type": "address"
        },
        {
          "internalType": "bytes32",
          "name": "salt",
          "type": "bytes32"
        },
        {
          "internalType": "uint256[]",
          "name": "extensions",
          "type": "uint256[]"
        }
      ],
      "stateMutability": "view",
      "type": "function"
    },
    {
      "inputs": [
        {
          "internalType": "bytes32",
          "name": "calculatedHash",
          "type": "bytes32"
        }
      ],
      "name": "hashTypedDataV4",
      "outputs": [
        {
          "internalType": "bytes32",
          "name": "",
          "type": "bytes32"
        }
      ],
      "stateMutability": "view",
      "type": "function"
    },
    {
      "inputs": [
        {
          "internalType": "uint256",
          "name": "_caseId",
          "type": "uint256"
        },
        {
          "internalType": "uint256",
          "name": "_caseSpecificOfficerId",
          "type": "uint256"
        },
        {
          "internalType": "address",
          "name": "_officer",
          "type": "address"
        }
      ],
      "name": "removeOfficerInCase",
      "outputs": [],
      "stateMutability": "nonpayable",
      "type": "function"
    },
    {
      "inputs": [
        {
          "internalType": "uint256",
          "name": "_caseId",
          "type": "uint256"
        },
        {
          "internalType": "enum Cases.CaseStatus",
          "name": "_status",
          "type": "uint8"
        }
      ],
      "name": "updateCaseStatus",
      "outputs": [],
      "stateMutability": "nonpayable",
      "type": "function"
    }
  ],
  "bytecode": {
    "object": "0x6101606040523480156200001257600080fd5b5060405162001c4338038062001c438339810160408190526200003591620001ca565b6040805180820182526005815264436173657360d81b602080830191909152825180840190935260018352603160f81b90830152906200007782600062000145565b610120526200008881600162000145565b61014052815160208084019190912060e052815190820120610100524660a0526200011660e05161010051604080517f8b73c3c69bb8fe3d512ecc4cf759cc79239f7b179b0ffacaa9a75d522b39400f60208201529081019290925260608201524660808201523060a082015260009060c00160405160208183030381529060405280519060200120905090565b60805250503060c052600280546001600160a01b0319166001600160a01b0392909216919091179055620003e2565b600060208351101562000165576200015d836200017e565b905062000178565b81620001728482620002a1565b5060ff90505b92915050565b600080829050601f81511115620001b5578260405163305a27a960e01b8152600401620001ac91906200036d565b60405180910390fd5b8051620001c282620003bd565b179392505050565b600060208284031215620001dd57600080fd5b81516001600160a01b0381168114620001f557600080fd5b9392505050565b634e487b7160e01b600052604160045260246000fd5b600181811c908216806200022757607f821691505b6020821081036200024857634e487b7160e01b600052602260045260246000fd5b50919050565b601f8211156200029c57600081815260208120601f850160051c81016020861015620002775750805b601f850160051c820191505b81811015620002985782815560010162000283565b5050505b505050565b81516001600160401b03811115620002bd57620002bd620001fc565b620002d581620002ce845462000212565b846200024e565b602080601f8311600181146200030d5760008415620002f45750858301515b600019600386901b1c1916600185901b17855562000298565b600085815260208120601f198616915b828110156200033e578886015182559484019460019091019084016200031d565b50858210156200035d5787850151600019600388901b60f8161c191681555b5050505050600190811b01905550565b600060208083528351808285015260005b818110156200039c578581018301518582016040015282016200037e565b506000604082860101526040601f19601f8301168501019250505092915050565b80516020808301519190811015620002485760001960209190910360031b1b16919050565b60805160a05160c05160e0516101005161012051610140516118066200043d6000396000610804015260006107da01526000610e1001526000610de801526000610d4301526000610d6d01526000610d9701526118066000f3fe608060405234801561001057600080fd5b50600436106100935760003560e01c806380bb89641161006657806380bb8964146100f957806384b0196e1461010c5780638ca767ae14610127578063af408e531461013a578063f698da251461014d57600080fd5b80630bccd07214610098578063223fb797146100ad5780634980f288146100c057806350111133146100e6575b600080fd5b6100ab6100a6366004611144565b610155565b005b6100ab6100bb366004611251565b610293565b6100d36100ce366004611144565b610465565b6040519081526020015b60405180910390f35b6100ab6100f4366004611325565b610476565b6100ab6101073660046113b1565b610632565b6101146107cc565b6040516100dd9796959493929190611423565b6100ab6101353660046114b9565b610854565b6100ab6101483660046114e9565b6109de565b6100d3610b69565b600260009054906101000a90046001600160a01b03166001600160a01b0316631315bbdc6040518163ffffffff1660e01b8152600401602060405180830381865afa1580156101a8573d6000803e3d6000fd5b505050506040513d601f19601f820116820180604052508101906101cc919061151e565b6101d581610b78565b600082815260036020819052604082205460ff16908111156101f9576101f9611537565b146102175760405163856ea98d60e01b815260040160405180910390fd5b6000828152600360209081526040808320805460ff191660019081178255808201805491820181558552938390209093018054336001600160a01b03199091168117909155905185815290917f547a98d8bef4d18f5a81dace5b57a54dfe3ec37e5492d78c667f7c4a7da5f5ed910160405180910390a2505050565b6000848152600360205260409020600181018054339190869081106102ba576102ba61154d565b6000918252602090912001546001600160a01b0316146102ed5760405163546c2b3d60e11b815260040160405180910390fd5b6000815460ff16600381111561030557610305611537565b036103235760405163856ea98d60e01b815260040160405180910390fd5b600061033a6103358560400151610bf7565b610c27565b905080831461035b576040516257c03760e51b815260040160405180910390fd5b610369846060015182610c54565b600282018054600181018255600091825260209182902086516003928302909101805465ffffffffffff19811665ffffffffffff909316928317825593880151889491939092849266ffffffffffffff1916179066010000000000009084908111156103d7576103d7611537565b0217905550604082015160018201906103f090826115ec565b506060820151600282019061040590826115ec565b505050336001600160a01b03167f7153f9d2e2bb4445c3d8dd41dfb36c6795681042725c270b146e1319e3156c0587866000015187602001518589604001516040516104559594939291906116bc565b60405180910390a2505050505050565b600061047082610c27565b92915050565b60008481526003602052604090206001810180543391908690811061049d5761049d61154d565b6000918252602090912001546001600160a01b0316146104d05760405163546c2b3d60e11b815260040160405180910390fd5b6000815460ff1660038111156104e8576104e8611537565b036105065760405163856ea98d60e01b815260040160405180910390fd5b60006105186103358560400151610bf7565b9050808314610539576040516257c03760e51b815260040160405180910390fd5b610547846060015182610c54565b600382810180546001810182556000918252602091829020875191909302909201805465ffffffffffff19811665ffffffffffff909416938417825591870151879391929091839166ffffffffffffff19161766010000000000008360068111156105b4576105b4611537565b0217905550604082015160018201906105cd90826115ec565b50606082015160028201906105e290826115ec565b505050336001600160a01b03167f69b52e2ad460aa2776ae9efebda2c31f9fe4a63b0611075ec0a04560d6aa81168786600001518760200151858960400151604051610455959493929190611703565b600260009054906101000a90046001600160a01b03166001600160a01b0316631315bbdc6040518163ffffffff1660e01b8152600401602060405180830381865afa158015610685573d6000803e3d6000fd5b505050506040513d601f19601f820116820180604052508101906106a9919061151e565b6106b281610b78565b600083815260036020526040812090815460ff1660038111156106d7576106d7611537565b036106f55760405163856ea98d60e01b815260040160405180910390fd5b336001600160a01b0316816001016000815481106107155761071561154d565b6000918252602090912001546001600160a01b0316146107485760405163546c2b3d60e11b815260040160405180910390fd5b6001818101805480830182556000828152602090200180546001600160a01b0319166001600160a01b0387169081179091559054909133917f4c6f2153690d0ef820d04c405c2d9e764eb6d31240d2522def7be72e01cbfcaa9188916107ae9190611746565b6040805192835260208301919091520160405180910390a350505050565b6000606080828080836107ff7f000000000000000000000000000000000000000000000000000000000000000083610c8a565b61082a7f00000000000000000000000000000000000000000000000000000000000000006001610c8a565b60408051600080825260208201909252600f60f81b9b939a50919850469750309650945092509050565b600260009054906101000a90046001600160a01b03166001600160a01b0316631315bbdc6040518163ffffffff1660e01b8152600401602060405180830381865afa1580156108a7573d6000803e3d6000fd5b505050506040513d601f19601f820116820180604052508101906108cb919061151e565b6108d481610b78565b600083815260036020526040812090815460ff1660038111156108f9576108f9611537565b036109175760405163856ea98d60e01b815260040160405180910390fd5b336001600160a01b0316816001016000815481106109375761093761154d565b6000918252602090912001546001600160a01b03161461096a5760405163546c2b3d60e11b815260040160405180910390fd5b805460ff8116908490839060ff1916600183600381111561098d5761098d611537565b0217905550336001600160a01b03167f646df2db9d1555aa5dfa4a33f4b4cb6c4cff20997255a61d88eb542424acbfbc8683876040516109cf93929190611767565b60405180910390a25050505050565b600260009054906101000a90046001600160a01b03166001600160a01b0316631315bbdc6040518163ffffffff1660e01b8152600401602060405180830381865afa158015610a31573d6000803e3d6000fd5b505050506040513d601f19601f82011682018060405250810190610a55919061151e565b610a5e81610b78565b600084815260036020526040902060018101805433919086908110610a8557610a8561154d565b6000918252602090912001546001600160a01b031614610ab85760405163546c2b3d60e11b815260040160405180910390fd5b6000815460ff166003811115610ad057610ad0611537565b03610aee5760405163856ea98d60e01b815260040160405180910390fd5b806001018481548110610b0357610b0361154d565b60009182526020918290200180546001600160a01b0319169055604080518781529182018690526001600160a01b0385169133917fcafca029632585152d9265c472ae425622b8f01dd61fc57ba7b452a06d84f188910160405180910390a35050505050565b6000610b73610d36565b905090565b600254604051632474521560e21b8152600481018390523360248201526001600160a01b03909116906391d1485490604401602060405180830381865afa158015610bc7573d6000803e3d6000fd5b505050506040513d601f19601f82011682018060405250810190610beb9190611794565b610bf457600080fd5b50565b600081604051602001610c0a91906117bd565b604051602081830303815290604052805190602001209050919050565b6000610470610c34610d36565b8360405161190160f01b8152600281019290925260228201526042902090565b33610c5f8284610e61565b6001600160a01b031603610c8657604051638baa579f60e01b815260040160405180910390fd5b5050565b606060ff8314610ca457610c9d83610e85565b9050610470565b818054610cb090611563565b80601f0160208091040260200160405190810160405280929190818152602001828054610cdc90611563565b8015610d295780601f10610cfe57610100808354040283529160200191610d29565b820191906000526020600020905b815481529060010190602001808311610d0c57829003601f168201915b5050505050905092915050565b6000306001600160a01b037f000000000000000000000000000000000000000000000000000000000000000016148015610d8f57507f000000000000000000000000000000000000000000000000000000000000000046145b15610db957507f000000000000000000000000000000000000000000000000000000000000000090565b610b73604080517f8b73c3c69bb8fe3d512ecc4cf759cc79239f7b179b0ffacaa9a75d522b39400f60208201527f0000000000000000000000000000000000000000000000000000000000000000918101919091527f000000000000000000000000000000000000000000000000000000000000000060608201524660808201523060a082015260009060c00160405160208183030381529060405280519060200120905090565b6000806000610e708585610ec4565b91509150610e7d81610f09565b509392505050565b60606000610e9283611058565b604080516020808252818301909252919250600091906020820181803683375050509182525060208101929092525090565b6000808251604103610efa5760208301516040840151606085015160001a610eee87828585611080565b94509450505050610f02565b506000905060025b9250929050565b6000816004811115610f1d57610f1d611537565b03610f255750565b6001816004811115610f3957610f39611537565b03610f8b5760405162461bcd60e51b815260206004820152601860248201527f45434453413a20696e76616c6964207369676e6174757265000000000000000060448201526064015b60405180910390fd5b6002816004811115610f9f57610f9f611537565b03610fec5760405162461bcd60e51b815260206004820152601f60248201527f45434453413a20696e76616c6964207369676e6174757265206c656e677468006044820152606401610f82565b600381600481111561100057611000611537565b03610bf45760405162461bcd60e51b815260206004820152602260248201527f45434453413a20696e76616c6964207369676e6174757265202773272076616c604482015261756560f01b6064820152608401610f82565b600060ff8216601f81111561047057604051632cd44ac360e21b815260040160405180910390fd5b6000807f7fffffffffffffffffffffffffffffff5d576e7357a4501ddfe92f46681b20a08311156110b7575060009050600361113b565b6040805160008082526020820180845289905260ff881692820192909252606081018690526080810185905260019060a0016020604051602081039080840390855afa15801561110b573d6000803e3d6000fd5b5050604051601f1901519150506001600160a01b0381166111345760006001925092505061113b565b9150600090505b94509492505050565b60006020828403121561115657600080fd5b5035919050565b634e487b7160e01b600052604160045260246000fd5b6040516080810167ffffffffffffffff811182821017156111965761119661115d565b60405290565b803565ffffffffffff811681146111b257600080fd5b919050565b60048110610bf457600080fd5b600082601f8301126111d557600080fd5b813567ffffffffffffffff808211156111f0576111f061115d565b604051601f8301601f19908116603f011681019082821181831017156112185761121861115d565b8160405283815286602085880101111561123157600080fd5b836020870160208301376000602085830101528094505050505092915050565b6000806000806080858703121561126757600080fd5b8435935060208501359250604085013567ffffffffffffffff8082111561128d57600080fd5b90860190608082890312156112a157600080fd5b6112a9611173565b6112b28361119c565b815260208301356112c2816111b7565b60208201526040830135828111156112d957600080fd5b6112e58a8286016111c4565b6040830152506060830135828111156112fd57600080fd5b6113098a8286016111c4565b6060830152508094505050506060850135905092959194509250565b6000806000806080858703121561133b57600080fd5b8435935060208501359250604085013567ffffffffffffffff8082111561136157600080fd5b908601906080828903121561137557600080fd5b61137d611173565b6113868361119c565b81526020830135600781106112c257600080fd5b80356001600160a01b03811681146111b257600080fd5b600080604083850312156113c457600080fd5b823591506113d46020840161139a565b90509250929050565b6000815180845260005b81811015611403576020818501810151868301820152016113e7565b506000602082860101526020601f19601f83011685010191505092915050565b60ff60f81b881681526000602060e08184015261144360e084018a6113dd565b8381036040850152611455818a6113dd565b606085018990526001600160a01b038816608086015260a0850187905284810360c0860152855180825283870192509083019060005b818110156114a75783518352928401929184019160010161148b565b50909c9b505050505050505050505050565b600080604083850312156114cc57600080fd5b8235915060208301356114de816111b7565b809150509250929050565b6000806000606084860312156114fe57600080fd5b83359250602084013591506115156040850161139a565b90509250925092565b60006020828403121561153057600080fd5b5051919050565b634e487b7160e01b600052602160045260246000fd5b634e487b7160e01b600052603260045260246000fd5b600181811c9082168061157757607f821691505b60208210810361159757634e487b7160e01b600052602260045260246000fd5b50919050565b601f8211156115e757600081815260208120601f850160051c810160208610156115c45750805b601f850160051c820191505b818110156115e3578281556001016115d0565b5050505b505050565b815167ffffffffffffffff8111156116065761160661115d565b61161a816116148454611563565b8461159d565b602080601f83116001811461164f57600084156116375750858301515b600019600386901b1c1916600185901b1785556115e3565b600085815260208120601f198616915b8281101561167e5788860151825594840194600190910190840161165f565b508582101561169c5787850151600019600388901b60f8161c191681555b5050505050600190811b01905550565b60048110610bf457610bf4611537565b85815265ffffffffffff851660208201526116d6846116ac565b83604082015282606082015260a0608082015260006116f860a08301846113dd565b979650505050505050565b85815265ffffffffffff8516602082015260006007851061172657611726611537565b84604083015283606083015260a060808301526116f860a08301846113dd565b8181038181111561047057634e487b7160e01b600052601160045260246000fd5b83815260608101611777846116ac565b836020830152611786836116ac565b826040830152949350505050565b6000602082840312156117a657600080fd5b815180151581146117b657600080fd5b9392505050565b6020815260006117b660208301846113dd56fea26469706673582212208396fad95d2596079e7d2fc5c97d0a73c5bbbdd3d8ca6918850de799595c0f0964736f6c63430008150033",
    "linkReferences": {}
  },
  "methodIdentifiers": {
    "addCase(uint256)": "0bccd072",
    "addEvidence(uint256,uint256,(uint48,uint8,bytes,bytes),bytes32)": "50111133",
    "addOfficerInCase(uint256,address)": "80bb8964",
    "addParticipant(uint256,uint256,(uint48,uint8,bytes,bytes),bytes32)": "223fb797",
    "domainSeparator()": "f698da25",
    "eip712Domain()": "84b0196e",
    "hashTypedDataV4(bytes32)": "4980f288",
    "removeOfficerInCase(uint256,uint256,address)": "af408e53",
    "updateCaseStatus(uint256,uint8)": "8ca767ae"
  },
  "id": 30
}