{
  "abi": [
    {
      "inputs": [
        {
          "internalType": "address",
          "name": "_officer",
          "type": "address"
        },
        {
          "internalType": "string",
          "name": "_name",
          "type": "string"
        },
        {
          "internalType": "string",
          "name": "_badge",
          "type": "string"
        }
      ],
      "stateMutability": "nonpayable",
      "type": "constructor"
    },
    {
      "inputs": [],
      "name": "InvalidAddress",
      "type": "error"
    },
    {
      "inputs": [],
      "name": "InvalidOfficer",
      "type": "error"
    },
    {
      "inputs": [],
      "name": "InvalidRank",
      "type": "error"
    },
    {
      "inputs": [],
      "name": "InvalidStatus",
      "type": "error"
    },
    {
      "inputs": [],
      "name": "InvalidString",
      "type": "error"
    },
    {
      "anonymous": false,
      "inputs": [
        {
          "indexed": false,
          "internalType": "address",
          "name": "officer",
          "type": "address"
        },
        {
          "indexed": true,
          "internalType": "bytes32",
          "name": "newRank",
          "type": "bytes32"
        },
        {
          "indexed": true,
          "internalType": "uint256",
          "name": "when",
          "type": "uint256"
        },
        {
          "indexed": false,
          "internalType": "address",
          "name": "from",
          "type": "address"
        }
      ],
      "name": "NewOfficer",
      "type": "event"
    },
    {
      "anonymous": false,
      "inputs": [
        {
          "indexed": false,
          "internalType": "address",
          "name": "officer",
          "type": "address"
        },
        {
          "indexed": true,
          "internalType": "enum Officers.EmploymentStatus",
          "name": "employmentStatus",
          "type": "uint8"
        },
        {
          "indexed": true,
          "internalType": "uint256",
          "name": "when",
          "type": "uint256"
        },
        {
          "indexed": false,
          "internalType": "address",
          "name": "from",
          "type": "address"
        }
      ],
      "name": "OffBoard",
      "type": "event"
    },
    {
      "anonymous": false,
      "inputs": [
        {
          "indexed": false,
          "internalType": "address",
          "name": "officer",
          "type": "address"
        },
        {
          "indexed": true,
          "internalType": "bytes32",
          "name": "prevRank",
          "type": "bytes32"
        },
        {
          "indexed": true,
          "internalType": "bytes32",
          "name": "newRank",
          "type": "bytes32"
        },
        {
          "indexed": true,
          "internalType": "uint256",
          "name": "when",
          "type": "uint256"
        },
        {
          "indexed": false,
          "internalType": "address",
          "name": "from",
          "type": "address"
        }
      ],
      "name": "RankUpdate",
      "type": "event"
    },
    {
      "anonymous": false,
      "inputs": [
        {
          "indexed": true,
          "internalType": "bytes32",
          "name": "role",
          "type": "bytes32"
        },
        {
          "indexed": true,
          "internalType": "bytes32",
          "name": "previousAdminRole",
          "type": "bytes32"
        },
        {
          "indexed": true,
          "internalType": "bytes32",
          "name": "newAdminRole",
          "type": "bytes32"
        }
      ],
      "name": "RoleAdminChanged",
      "type": "event"
    },
    {
      "anonymous": false,
      "inputs": [
        {
          "indexed": true,
          "internalType": "bytes32",
          "name": "role",
          "type": "bytes32"
        },
        {
          "indexed": true,
          "internalType": "address",
          "name": "account",
          "type": "address"
        },
        {
          "indexed": true,
          "internalType": "address",
          "name": "sender",
          "type": "address"
        }
      ],
      "name": "RoleGranted",
      "type": "event"
    },
    {
      "anonymous": false,
      "inputs": [
        {
          "indexed": true,
          "internalType": "bytes32",
          "name": "role",
          "type": "bytes32"
        },
        {
          "indexed": true,
          "internalType": "address",
          "name": "account",
          "type": "address"
        },
        {
          "indexed": true,
          "internalType": "address",
          "name": "sender",
          "type": "address"
        }
      ],
      "name": "RoleRevoked",
      "type": "event"
    },
    {
      "inputs": [],
      "name": "CAPTAIN_ROLE",
      "outputs": [
        {
          "internalType": "bytes32",
          "name": "",
          "type": "bytes32"
        }
      ],
      "stateMutability": "view",
      "type": "function"
    },
    {
      "inputs": [],
      "name": "DEFAULT_ADMIN_ROLE",
      "outputs": [
        {
          "internalType": "bytes32",
          "name": "",
          "type": "bytes32"
        }
      ],
      "stateMutability": "view",
      "type": "function"
    },
    {
      "inputs": [],
      "name": "DETECTIVE_ROLE",
      "outputs": [
        {
          "internalType": "bytes32",
          "name": "",
          "type": "bytes32"
        }
      ],
      "stateMutability": "view",
      "type": "function"
    },
    {
      "inputs": [],
      "name": "OFFICER_ROLE",
      "outputs": [
        {
          "internalType": "bytes32",
          "name": "",
          "type": "bytes32"
        }
      ],
      "stateMutability": "view",
      "type": "function"
    },
    {
      "inputs": [
        {
          "internalType": "bytes32",
          "name": "role",
          "type": "bytes32"
        }
      ],
      "name": "getRoleAdmin",
      "outputs": [
        {
          "internalType": "bytes32",
          "name": "",
          "type": "bytes32"
        }
      ],
      "stateMutability": "view",
      "type": "function"
    },
    {
      "inputs": [
        {
          "internalType": "bytes32",
          "name": "role",
          "type": "bytes32"
        },
        {
          "internalType": "address",
          "name": "account",
          "type": "address"
        }
      ],
      "name": "grantRole",
      "outputs": [],
      "stateMutability": "nonpayable",
      "type": "function"
    },
    {
      "inputs": [
        {
          "internalType": "bytes32",
          "name": "role",
          "type": "bytes32"
        },
        {
          "internalType": "address",
          "name": "account",
          "type": "address"
        }
      ],
      "name": "hasRole",
      "outputs": [
        {
          "internalType": "bool",
          "name": "",
          "type": "bool"
        }
      ],
      "stateMutability": "view",
      "type": "function"
    },
    {
      "inputs": [
        {
          "internalType": "address",
          "name": "_officer",
          "type": "address"
        }
      ],
      "name": "isValidOfficer",
      "outputs": [
        {
          "internalType": "bool",
          "name": "",
          "type": "bool"
        }
      ],
      "stateMutability": "view",
      "type": "function"
    },
    {
      "inputs": [
        {
          "internalType": "address",
          "name": "_officer",
          "type": "address"
        },
        {
          "internalType": "bytes32",
          "name": "_role",
          "type": "bytes32"
        }
      ],
      "name": "isValidRank",
      "outputs": [
        {
          "internalType": "bool",
          "name": "",
          "type": "bool"
        }
      ],
      "stateMutability": "view",
      "type": "function"
    },
    {
      "inputs": [
        {
          "internalType": "address",
          "name": "_officer",
          "type": "address"
        },
        {
          "internalType": "enum Officers.EmploymentStatus",
          "name": "_employmentStatus",
          "type": "uint8"
        },
        {
          "internalType": "bytes32",
          "name": "rank",
          "type": "bytes32"
        }
      ],
      "name": "offboard",
      "outputs": [],
      "stateMutability": "nonpayable",
      "type": "function"
    },
    {
      "inputs": [
        {
          "internalType": "address",
          "name": "_officer",
          "type": "address"
        }
      ],
      "name": "officer",
      "outputs": [
        {
          "components": [
            {
              "internalType": "string",
              "name": "name",
              "type": "string"
            },
            {
              "internalType": "string",
              "name": "badge",
              "type": "string"
            },
            {
              "internalType": "enum Officers.EmploymentStatus",
              "name": "employmentStatus",
              "type": "uint8"
            }
          ],
          "internalType": "struct Officers.Officer",
          "name": "",
          "type": "tuple"
        }
      ],
      "stateMutability": "view",
      "type": "function"
    },
    {
      "inputs": [
        {
          "internalType": "address",
          "name": "_officer",
          "type": "address"
        },
        {
          "internalType": "string",
          "name": "_name",
          "type": "string"
        },
        {
          "internalType": "string",
          "name": "_badge",
          "type": "string"
        },
        {
          "internalType": "bytes32",
          "name": "_rank",
          "type": "bytes32"
        }
      ],
      "name": "onboard",
      "outputs": [],
      "stateMutability": "nonpayable",
      "type": "function"
    },
    {
      "inputs": [
        {
          "internalType": "address",
          "name": "_officer",
          "type": "address"
        },
        {
          "internalType": "bytes32",
          "name": "_rank",
          "type": "bytes32"
        }
      ],
      "name": "onboard",
      "outputs": [],
      "stateMutability": "nonpayable",
      "type": "function"
    },
    {
      "inputs": [
        {
          "internalType": "bytes32",
          "name": "role",
          "type": "bytes32"
        },
        {
          "internalType": "address",
          "name": "account",
          "type": "address"
        }
      ],
      "name": "renounceRole",
      "outputs": [],
      "stateMutability": "nonpayable",
      "type": "function"
    },
    {
      "inputs": [
        {
          "internalType": "bytes32",
          "name": "role",
          "type": "bytes32"
        },
        {
          "internalType": "address",
          "name": "account",
          "type": "address"
        }
      ],
      "name": "revokeRole",
      "outputs": [],
      "stateMutability": "nonpayable",
      "type": "function"
    },
    {
      "inputs": [
        {
          "internalType": "bytes32",
          "name": "role",
          "type": "bytes32"
        },
        {
          "internalType": "bytes32",
          "name": "adminRole",
          "type": "bytes32"
        }
      ],
      "name": "setRoleAdmin",
      "outputs": [],
      "stateMutability": "nonpayable",
      "type": "function"
    },
    {
      "inputs": [
        {
          "internalType": "bytes4",
          "name": "interfaceId",
          "type": "bytes4"
        }
      ],
      "name": "supportsInterface",
      "outputs": [
        {
          "internalType": "bool",
          "name": "",
          "type": "bool"
        }
      ],
      "stateMutability": "view",
      "type": "function"
    },
    {
      "inputs": [
        {
          "internalType": "address",
          "name": "_officer",
          "type": "address"
        },
        {
          "internalType": "bytes32",
          "name": "_prevRank",
          "type": "bytes32"
        },
        {
          "internalType": "bytes32",
          "name": "_rank",
          "type": "bytes32"
        }
      ],
      "name": "updateRank",
      "outputs": [],
      "stateMutability": "nonpayable",
      "type": "function"
    }
  ],
  "bytecode": {
    "object": "0x60806040523480156200001157600080fd5b50604051620019a7380380620019a7833981016040819052620000349162000378565b6200004160003362000096565b6200008d8383836040516020016200006b906b4341505441494e5f524f4c4560a01b8152600c0190565b604051602081830303815290604052805190602001206200013760201b60201c565b5050506200055d565b6000828152602081815260408083206001600160a01b038516845290915290205460ff1662000133576000828152602081815260408083206001600160a01b03851684529091529020805460ff19166001179055620000f23390565b6001600160a01b0316816001600160a01b0316837f2f8788117e7eff1d82e926ec794901d17c78024a50270940304540a733656f0d60405160405180910390a45b5050565b6001600160a01b0384166200015f5760405163e6c4247b60e01b815260040160405180910390fd5b604080516020808201909252600090528351908401207fc5d2460186f7233c927e7db2dcc703c0e500b653ca82273b7bfad8045d85a4701480620001d75750604080516020808201909252600090528251908301207fc5d2460186f7233c927e7db2dcc703c0e500b653ca82273b7bfad8045d85a470145b15620001f657604051630ec0325960e21b815260040160405180910390fd5b8062000215576040516302ba562960e61b815260040160405180910390fd5b6001600160a01b0384166000908152600160205260409020806200023a858262000491565b50600181016200024b848262000491565b5060028101805460ff1916600117905562000267828662000096565b604080516001600160a01b0387168152336020820152429184917fc5cefee6bcfd33b7e61526d854f091f5f747c283403dda411acfe3e68835650a910160405180910390a35050505050565b634e487b7160e01b600052604160045260246000fd5b600082601f830112620002db57600080fd5b81516001600160401b0380821115620002f857620002f8620002b3565b604051601f8301601f19908116603f01168101908282118183101715620003235762000323620002b3565b816040528381526020925086838588010111156200034057600080fd5b600091505b8382101562000364578582018301518183018401529082019062000345565b600093810190920192909252949350505050565b6000806000606084860312156200038e57600080fd5b83516001600160a01b0381168114620003a657600080fd5b60208501519093506001600160401b0380821115620003c457600080fd5b620003d287838801620002c9565b93506040860151915080821115620003e957600080fd5b50620003f886828701620002c9565b9150509250925092565b600181811c908216806200041757607f821691505b6020821081036200043857634e487b7160e01b600052602260045260246000fd5b50919050565b601f8211156200048c57600081815260208120601f850160051c81016020861015620004675750805b601f850160051c820191505b81811015620004885782815560010162000473565b5050505b505050565b81516001600160401b03811115620004ad57620004ad620002b3565b620004c581620004be845462000402565b846200043e565b602080601f831160018114620004fd5760008415620004e45750858301515b600019600386901b1c1916600185901b17855562000488565b600085815260208120601f198616915b828110156200052e578886015182559484019460019091019084016200050d565b50858210156200054d5787850151600019600388901b60f8161c191681555b5050505050600190811b01905550565b61143a806200056d6000396000f3fe608060405234801561001057600080fd5b50600436106101165760003560e01c8063785beb50116100a2578063aa96a0a011610071578063aa96a0a01461021b578063c8ffa49e1461023b578063d547741f1461024e578063db8c5ab814610261578063e27e079a1461027457600080fd5b8063785beb50146101da57806391d14854146101ed578063a20ad55f14610200578063a217fddf1461021357600080fd5b80632f2ff15d116100e95780632f2ff15d1461019157806333fff340146101a457806336568abe146101b757806336856c66146101ca5780637264953b146101d257600080fd5b806301ffc9a71461011b5780631315bbdc146101435780631e4e009114610159578063248a9ca31461016e575b600080fd5b61012e610129366004610e6b565b610287565b60405190151581526020015b60405180910390f35b61014b6102be565b60405190815260200161013a565b61016c610167366004610e95565b6102f3565b005b61014b61017c366004610eb7565b60009081526020819052604090206001015490565b61016c61019f366004610eec565b610301565b61016c6101b2366004610fbb565b61032b565b61016c6101c5366004610eec565b610378565b61014b6103f7565b61014b610419565b61016c6101e8366004611037565b610439565b61012e6101fb366004610eec565b610534565b61012e61020e366004611061565b61055d565b61014b600081565b61022e610229366004611061565b610598565b60405161013a91906110e2565b61012e610249366004611037565b610736565b61016c61025c366004610eec565b610749565b61016c61026f366004611151565b61076e565b61016c610282366004611194565b6108cf565b60006001600160e01b03198216637965db0b60e01b14806102b857506301ffc9a760e01b6001600160e01b03198316145b92915050565b6040516b4341505441494e5f524f4c4560a01b6020820152602c015b6040516020818303038152906040528051906020012081565b6102fd82826109bb565b5050565b60008281526020819052604090206001015461031c81610a06565b6103268383610a13565b505050565b6040516b4341505441494e5f524f4c4560a01b6020820152602c016040516020818303038152906040528051906020012061036581610a06565b61037185858585610a97565b5050505050565b6001600160a01b03811633146103ed5760405162461bcd60e51b815260206004820152602f60248201527f416363657373436f6e74726f6c3a2063616e206f6e6c792072656e6f756e636560448201526e103937b632b9903337b91039b2b63360891b60648201526084015b60405180910390fd5b6102fd8282610bff565b6040516d4445544543544956455f524f4c4560901b6020820152602e016102da565b6040516b4f4646494345525f524f4c4560a01b6020820152602c016102da565b6040516b4341505441494e5f524f4c4560a01b6020820152602c016040516020818303038152906040528051906020012061047381610a06565b6001600160a01b03831661049a5760405163e6c4247b60e01b815260040160405180910390fd5b816104b8576040516302ba562960e61b815260040160405180910390fd5b6001600160a01b03831660009081526001602052604090206104da8385610a13565b60028101805460ff19166001179055604080516001600160a01b0386168152336020820152429185917fc5cefee6bcfd33b7e61526d854f091f5f747c283403dda411acfe3e68835650a910160405180910390a350505050565b6000918252602082815260408084206001600160a01b0393909316845291905290205460ff1690565b600060016001600160a01b03831660009081526001602052604090206002015460ff166003811115610591576105916110cc565b1492915050565b6105b8604080516060808201835280825260208201529081016000905290565b6001600160a01b038216600090815260016020526040908190208151606081019092528054829082906105ea906111c7565b80601f0160208091040260200160405190810160405280929190818152602001828054610616906111c7565b80156106635780601f1061063857610100808354040283529160200191610663565b820191906000526020600020905b81548152906001019060200180831161064657829003601f168201915b5050505050815260200160018201805461067c906111c7565b80601f01602080910402602001604051908101604052809291908181526020018280546106a8906111c7565b80156106f55780601f106106ca576101008083540402835291602001916106f5565b820191906000526020600020905b8154815290600101906020018083116106d857829003601f168201915b5050509183525050600282015460209091019060ff16600381111561071c5761071c6110cc565b600381111561072d5761072d6110cc565b90525092915050565b60006107428284610534565b9392505050565b60008281526020819052604090206001015461076481610a06565b6103268383610bff565b6040516b4341505441494e5f524f4c4560a01b6020820152602c01604051602081830303815290604052805190602001206107a881610a06565b6001600160a01b0384166107cf5760405163e6c4247b60e01b815260040160405180910390fd5b6107d98285610534565b6107f65760405163546c2b3d60e11b815260040160405180910390fd5b600183600381111561080a5761080a6110cc565b03610828576040516307a92f1960e51b815260040160405180910390fd5b6001600160a01b03841660009081526001602081905260409091206002810180549192869260ff191690836003811115610864576108646110cc565b02179055506108738386610bff565b42846003811115610886576108866110cc565b604080516001600160a01b03891681523360208201527ff133fba229f4b25bf6b064f5b4a529488b177a84ab6d07c4211493801770d39e91015b60405180910390a35050505050565b6040516b4341505441494e5f524f4c4560a01b6020820152602c016040516020818303038152906040528051906020012061090981610a06565b82821480610915575082155b15610933576040516302ba562960e61b815260040160405180910390fd5b61093d8385610534565b61095a5760405163546c2b3d60e11b815260040160405180910390fd5b6109648385610bff565b61096e8285610a13565b604080516001600160a01b03861681523360208201524291849186917f801846fec959a50f4f8361e7b87ec9fe2bb0054dc10e0887154bed0950f163e0910160405180910390a450505050565b600082815260208190526040808220600101805490849055905190918391839186917fbd79b86ffe0ab8e8776151514217cd7cacd52c909f66475c3af44e129f0b00ff9190a4505050565b610a108133610c64565b50565b610a1d8282610534565b6102fd576000828152602081815260408083206001600160a01b03851684529091529020805460ff19166001179055610a533390565b6001600160a01b0316816001600160a01b0316837f2f8788117e7eff1d82e926ec794901d17c78024a50270940304540a733656f0d60405160405180910390a45050565b6001600160a01b038416610abe5760405163e6c4247b60e01b815260040160405180910390fd5b604080516020808201909252600090528351908401207fc5d2460186f7233c927e7db2dcc703c0e500b653ca82273b7bfad8045d85a4701480610b355750604080516020808201909252600090528251908301207fc5d2460186f7233c927e7db2dcc703c0e500b653ca82273b7bfad8045d85a470145b15610b5357604051630ec0325960e21b815260040160405180910390fd5b80610b71576040516302ba562960e61b815260040160405180910390fd5b6001600160a01b038416600090815260016020526040902080610b94858261124f565b5060018101610ba3848261124f565b5060028101805460ff19166001179055610bbd8286610a13565b604080516001600160a01b0387168152336020820152429184917fc5cefee6bcfd33b7e61526d854f091f5f747c283403dda411acfe3e68835650a91016108c0565b610c098282610534565b156102fd576000828152602081815260408083206001600160a01b0385168085529252808320805460ff1916905551339285917ff6391f5c32d9c69d2a47ea670b442974b53935d1edc7fd64eb21e047a839171b9190a45050565b610c6e8282610534565b6102fd57610c7b81610cbd565b610c86836020610ccf565b604051602001610c9792919061130f565b60408051601f198184030181529082905262461bcd60e51b82526103e491600401611384565b60606102b86001600160a01b03831660145b60606000610cde8360026113ad565b610ce99060026113c4565b67ffffffffffffffff811115610d0157610d01610f18565b6040519080825280601f01601f191660200182016040528015610d2b576020820181803683370190505b509050600360fc1b81600081518110610d4657610d466113d7565b60200101906001600160f81b031916908160001a905350600f60fb1b81600181518110610d7557610d756113d7565b60200101906001600160f81b031916908160001a9053506000610d998460026113ad565b610da49060016113c4565b90505b6001811115610e1c576f181899199a1a9b1b9c1cb0b131b232b360811b85600f1660108110610dd857610dd86113d7565b1a60f81b828281518110610dee57610dee6113d7565b60200101906001600160f81b031916908160001a90535060049490941c93610e15816113ed565b9050610da7565b5083156107425760405162461bcd60e51b815260206004820181905260248201527f537472696e67733a20686578206c656e67746820696e73756666696369656e7460448201526064016103e4565b600060208284031215610e7d57600080fd5b81356001600160e01b03198116811461074257600080fd5b60008060408385031215610ea857600080fd5b50508035926020909101359150565b600060208284031215610ec957600080fd5b5035919050565b80356001600160a01b0381168114610ee757600080fd5b919050565b60008060408385031215610eff57600080fd5b82359150610f0f60208401610ed0565b90509250929050565b634e487b7160e01b600052604160045260246000fd5b600082601f830112610f3f57600080fd5b813567ffffffffffffffff80821115610f5a57610f5a610f18565b604051601f8301601f19908116603f01168101908282118183101715610f8257610f82610f18565b81604052838152866020858801011115610f9b57600080fd5b836020870160208301376000602085830101528094505050505092915050565b60008060008060808587031215610fd157600080fd5b610fda85610ed0565b9350602085013567ffffffffffffffff80821115610ff757600080fd5b61100388838901610f2e565b9450604087013591508082111561101957600080fd5b5061102687828801610f2e565b949793965093946060013593505050565b6000806040838503121561104a57600080fd5b61105383610ed0565b946020939093013593505050565b60006020828403121561107357600080fd5b61074282610ed0565b60005b8381101561109757818101518382015260200161107f565b50506000910152565b600081518084526110b881602086016020860161107c565b601f01601f19169290920160200192915050565b634e487b7160e01b600052602160045260246000fd5b6020815260008251606060208401526110fe60808401826110a0565b90506020840151601f1984830301604085015261111b82826110a0565b91505060408401516004811061114157634e487b7160e01b600052602160045260246000fd5b6060939093019290925250919050565b60008060006060848603121561116657600080fd5b61116f84610ed0565b925060208401356004811061118357600080fd5b929592945050506040919091013590565b6000806000606084860312156111a957600080fd5b6111b284610ed0565b95602085013595506040909401359392505050565b600181811c908216806111db57607f821691505b6020821081036111fb57634e487b7160e01b600052602260045260246000fd5b50919050565b601f82111561032657600081815260208120601f850160051c810160208610156112285750805b601f850160051c820191505b8181101561124757828155600101611234565b505050505050565b815167ffffffffffffffff81111561126957611269610f18565b61127d8161127784546111c7565b84611201565b602080601f8311600181146112b2576000841561129a5750858301515b600019600386901b1c1916600185901b178555611247565b600085815260208120601f198616915b828110156112e1578886015182559484019460019091019084016112c2565b50858210156112ff5787850151600019600388901b60f8161c191681555b5050505050600190811b01905550565b7f416363657373436f6e74726f6c3a206163636f756e742000000000000000000081526000835161134781601785016020880161107c565b7001034b99036b4b9b9b4b733903937b6329607d1b601791840191820152835161137881602884016020880161107c565b01602801949350505050565b60208152600061074260208301846110a0565b634e487b7160e01b600052601160045260246000fd5b80820281158282048414176102b8576102b8611397565b808201808211156102b8576102b8611397565b634e487b7160e01b600052603260045260246000fd5b6000816113fc576113fc611397565b50600019019056fea2646970667358221220a0a90eee5294d87324135803b4387e9ab641f677e3938b92d43bba7494ae145764736f6c63430008150033",
    "linkReferences": {}
  },
  "methodIdentifiers": {
    "CAPTAIN_ROLE()": "1315bbdc",
    "DEFAULT_ADMIN_ROLE()": "a217fddf",
    "DETECTIVE_ROLE()": "36856c66",
    "OFFICER_ROLE()": "7264953b",
    "getRoleAdmin(bytes32)": "248a9ca3",
    "grantRole(bytes32,address)": "2f2ff15d",
    "hasRole(bytes32,address)": "91d14854",
    "isValidOfficer(address)": "a20ad55f",
    "isValidRank(address,bytes32)": "c8ffa49e",
    "offboard(address,uint8,bytes32)": "db8c5ab8",
    "officer(address)": "aa96a0a0",
    "onboard(address,bytes32)": "785beb50",
    "onboard(address,string,string,bytes32)": "33fff340",
    "renounceRole(bytes32,address)": "36568abe",
    "revokeRole(bytes32,address)": "d547741f",
    "setRoleAdmin(bytes32,bytes32)": "1e4e0091",
    "supportsInterface(bytes4)": "01ffc9a7",
    "updateRank(address,bytes32,bytes32)": "e27e079a"
  },
  "id": 31
}