{
  "abi": [
    {
      "inputs": [],
      "name": "InvalidAddress",
      "type": "error"
    },
    {
      "inputs": [],
      "name": "InvalidString",
      "type": "error"
    },
    {
      "anonymous": false,
      "inputs": [
        {
          "indexed": false,
          "internalType": "address",
          "name": "officer",
          "type": "address"
        },
        {
          "indexed": true,
          "internalType": "enum Officers.Rank",
          "name": "newRank",
          "type": "uint8"
        },
        {
          "indexed": true,
          "internalType": "uint256",
          "name": "when",
          "type": "uint256"
        },
        {
          "indexed": false,
          "internalType": "address",
          "name": "from",
          "type": "address"
        }
      ],
      "name": "NewOfficer",
      "type": "event"
    },
    {
      "anonymous": false,
      "inputs": [
        {
          "indexed": false,
          "internalType": "address",
          "name": "officer",
          "type": "address"
        },
        {
          "indexed": true,
          "internalType": "enum Officers.Rank",
          "name": "prevRank",
          "type": "uint8"
        },
        {
          "indexed": true,
          "internalType": "enum Officers.Rank",
          "name": "newRank",
          "type": "uint8"
        },
        {
          "indexed": true,
          "internalType": "uint256",
          "name": "when",
          "type": "uint256"
        },
        {
          "indexed": false,
          "internalType": "address",
          "name": "from",
          "type": "address"
        }
      ],
      "name": "Promotion",
      "type": "event"
    },
    {
      "anonymous": false,
      "inputs": [
        {
          "indexed": true,
          "internalType": "bytes32",
          "name": "role",
          "type": "bytes32"
        },
        {
          "indexed": true,
          "internalType": "bytes32",
          "name": "previousAdminRole",
          "type": "bytes32"
        },
        {
          "indexed": true,
          "internalType": "bytes32",
          "name": "newAdminRole",
          "type": "bytes32"
        }
      ],
      "name": "RoleAdminChanged",
      "type": "event"
    },
    {
      "anonymous": false,
      "inputs": [
        {
          "indexed": true,
          "internalType": "bytes32",
          "name": "role",
          "type": "bytes32"
        },
        {
          "indexed": true,
          "internalType": "address",
          "name": "account",
          "type": "address"
        },
        {
          "indexed": true,
          "internalType": "address",
          "name": "sender",
          "type": "address"
        }
      ],
      "name": "RoleGranted",
      "type": "event"
    },
    {
      "anonymous": false,
      "inputs": [
        {
          "indexed": true,
          "internalType": "bytes32",
          "name": "role",
          "type": "bytes32"
        },
        {
          "indexed": true,
          "internalType": "address",
          "name": "account",
          "type": "address"
        },
        {
          "indexed": true,
          "internalType": "address",
          "name": "sender",
          "type": "address"
        }
      ],
      "name": "RoleRevoked",
      "type": "event"
    },
    {
      "inputs": [],
      "name": "CAPTAIN_ROLE",
      "outputs": [
        {
          "internalType": "bytes32",
          "name": "",
          "type": "bytes32"
        }
      ],
      "stateMutability": "view",
      "type": "function"
    },
    {
      "inputs": [],
      "name": "DEFAULT_ADMIN_ROLE",
      "outputs": [
        {
          "internalType": "bytes32",
          "name": "",
          "type": "bytes32"
        }
      ],
      "stateMutability": "view",
      "type": "function"
    },
    {
      "inputs": [],
      "name": "DETECTIVE_ROLE",
      "outputs": [
        {
          "internalType": "bytes32",
          "name": "",
          "type": "bytes32"
        }
      ],
      "stateMutability": "view",
      "type": "function"
    },
    {
      "inputs": [],
      "name": "OFFICER_ROLE",
      "outputs": [
        {
          "internalType": "bytes32",
          "name": "",
          "type": "bytes32"
        }
      ],
      "stateMutability": "view",
      "type": "function"
    },
    {
      "inputs": [
        {
          "internalType": "bytes32",
          "name": "role",
          "type": "bytes32"
        }
      ],
      "name": "getRoleAdmin",
      "outputs": [
        {
          "internalType": "bytes32",
          "name": "",
          "type": "bytes32"
        }
      ],
      "stateMutability": "view",
      "type": "function"
    },
    {
      "inputs": [
        {
          "internalType": "bytes32",
          "name": "role",
          "type": "bytes32"
        },
        {
          "internalType": "address",
          "name": "account",
          "type": "address"
        }
      ],
      "name": "grantRole",
      "outputs": [],
      "stateMutability": "nonpayable",
      "type": "function"
    },
    {
      "inputs": [
        {
          "internalType": "bytes32",
          "name": "role",
          "type": "bytes32"
        },
        {
          "internalType": "address",
          "name": "account",
          "type": "address"
        }
      ],
      "name": "hasRole",
      "outputs": [
        {
          "internalType": "bool",
          "name": "",
          "type": "bool"
        }
      ],
      "stateMutability": "view",
      "type": "function"
    },
    {
      "inputs": [
        {
          "internalType": "address",
          "name": "_officer",
          "type": "address"
        }
      ],
      "name": "isValidOfficer",
      "outputs": [
        {
          "internalType": "bool",
          "name": "",
          "type": "bool"
        }
      ],
      "stateMutability": "view",
      "type": "function"
    },
    {
      "inputs": [
        {
          "internalType": "address",
          "name": "_officer",
          "type": "address"
        }
      ],
      "name": "officer",
      "outputs": [
        {
          "components": [
            {
              "internalType": "string",
              "name": "name",
              "type": "string"
            },
            {
              "internalType": "string",
              "name": "badge",
              "type": "string"
            },
            {
              "internalType": "enum Officers.Rank",
              "name": "rank",
              "type": "uint8"
            },
            {
              "internalType": "enum Officers.EmploymentStatus",
              "name": "employmentStatus",
              "type": "uint8"
            }
          ],
          "internalType": "struct Officers.Officer",
          "name": "",
          "type": "tuple"
        }
      ],
      "stateMutability": "view",
      "type": "function"
    },
    {
      "inputs": [
        {
          "internalType": "address",
          "name": "_officer",
          "type": "address"
        },
        {
          "internalType": "string",
          "name": "name",
          "type": "string"
        },
        {
          "internalType": "string",
          "name": "badge",
          "type": "string"
        },
        {
          "internalType": "enum Officers.Rank",
          "name": "rank",
          "type": "uint8"
        }
      ],
      "name": "onboard",
      "outputs": [],
      "stateMutability": "nonpayable",
      "type": "function"
    },
    {
      "inputs": [
        {
          "internalType": "bytes32",
          "name": "role",
          "type": "bytes32"
        },
        {
          "internalType": "address",
          "name": "account",
          "type": "address"
        }
      ],
      "name": "renounceRole",
      "outputs": [],
      "stateMutability": "nonpayable",
      "type": "function"
    },
    {
      "inputs": [
        {
          "internalType": "bytes32",
          "name": "role",
          "type": "bytes32"
        },
        {
          "internalType": "address",
          "name": "account",
          "type": "address"
        }
      ],
      "name": "revokeRole",
      "outputs": [],
      "stateMutability": "nonpayable",
      "type": "function"
    },
    {
      "inputs": [
        {
          "internalType": "bytes32",
          "name": "role",
          "type": "bytes32"
        },
        {
          "internalType": "bytes32",
          "name": "adminRole",
          "type": "bytes32"
        }
      ],
      "name": "setRoleAdmin",
      "outputs": [],
      "stateMutability": "nonpayable",
      "type": "function"
    },
    {
      "inputs": [
        {
          "internalType": "bytes4",
          "name": "interfaceId",
          "type": "bytes4"
        }
      ],
      "name": "supportsInterface",
      "outputs": [
        {
          "internalType": "bool",
          "name": "",
          "type": "bool"
        }
      ],
      "stateMutability": "view",
      "type": "function"
    }
  ],
  "bytecode": {
    "object": "0x608060405234801561001057600080fd5b5061001c600033610021565b6100c0565b6000828152602081815260408083206001600160a01b038516845290915290205460ff166100bc576000828152602081815260408083206001600160a01b03851684529091529020805460ff1916600117905561007b3390565b6001600160a01b0316816001600160a01b0316837f2f8788117e7eff1d82e926ec794901d17c78024a50270940304540a733656f0d60405160405180910390a45b5050565b6110ea806100cf6000396000f3fe608060405234801561001057600080fd5b50600436106100ea5760003560e01c80635763af251161008c578063a20ad55f11610066578063a20ad55f146101c1578063a217fddf146101d4578063aa96a0a0146101dc578063d547741f146101fc57600080fd5b80635763af25146101935780637264953b146101a657806391d14854146101ae57600080fd5b8063248a9ca3116100c8578063248a9ca3146101425780632f2ff15d1461016557806336568abe1461017857806336856c661461018b57600080fd5b806301ffc9a7146100ef5780631315bbdc146101175780631e4e00911461012d575b600080fd5b6101026100fd366004610b8e565b61020f565b60405190151581526020015b60405180910390f35b61011f610246565b60405190815260200161010e565b61014061013b366004610bb8565b61027b565b005b61011f610150366004610bda565b60009081526020819052604090206001015490565b610140610173366004610c0f565b610289565b610140610186366004610c0f565b6102b3565b61011f610332565b6101406101a1366004610cde565b610354565b61011f610512565b6101026101bc366004610c0f565b610532565b6101026101cf366004610d69565b61055b565b61011f600081565b6101ef6101ea366004610d69565b610625565b60405161010e9190610e08565b61014061020a366004610c0f565b610804565b60006001600160e01b03198216637965db0b60e01b148061024057506301ffc9a760e01b6001600160e01b03198316145b92915050565b6040516b4341505441494e5f524f4c4560a01b6020820152602c015b6040516020818303038152906040528051906020012081565b6102858282610829565b5050565b6000828152602081905260409020600101546102a481610874565b6102ae8383610881565b505050565b6001600160a01b03811633146103285760405162461bcd60e51b815260206004820152602f60248201527f416363657373436f6e74726f6c3a2063616e206f6e6c792072656e6f756e636560448201526e103937b632b9903337b91039b2b63360891b60648201526084015b60405180910390fd5b6102858282610905565b6040516d4445544543544956455f524f4c4560901b6020820152602e01610262565b6040516b4341505441494e5f524f4c4560a01b6020820152602c016040516020818303038152906040528051906020012061038e81610874565b6001600160a01b0385166103b55760405163e6c4247b60e01b815260040160405180910390fd5b604080516020808201909252600090528451908501207fc5d2460186f7233c927e7db2dcc703c0e500b653ca82273b7bfad8045d85a470148061042c5750604080516020808201909252600090528351908401207fc5d2460186f7233c927e7db2dcc703c0e500b653ca82273b7bfad8045d85a470145b1561044a57604051630ec0325960e21b815260040160405180910390fd5b6001600160a01b03851660009081526001602052604090208061046d8682610eff565b506001810161047c8582610eff565b50828160020160006101000a81548160ff021916908360028111156104a3576104a3610dd4565b02179055506002818101805461ff0019169055429084908111156104c9576104c9610dd4565b604080516001600160a01b038a1681523360208201527f1965e1ff7c56b9966c39cb93d20e1a21ecaa517cfd5f6ae560fa7e77d5596eb7910160405180910390a3505050505050565b6040516b4f4646494345525f524f4c4560a01b6020820152602c01610262565b6000918252602082815260408084206001600160a01b0393909316845291905290205460ff1690565b604080516020808201835260008083526001600160a01b038516815260019182905292832001805461061e92919061059290610e77565b80601f01602080910402602001604051908101604052809291908181526020018280546105be90610e77565b801561060b5780601f106105e05761010080835404028352916020019161060b565b820191906000526020600020905b8154815290600101906020018083116105ee57829003601f168201915b505050505061096a90919063ffffffff16565b1592915050565b61064d6040805160808101825260608082526020820152908101600081526020016000905290565b6001600160a01b0382166000908152600160205260409081902081516080810190925280548290829061067f90610e77565b80601f01602080910402602001604051908101604052809291908181526020018280546106ab90610e77565b80156106f85780601f106106cd576101008083540402835291602001916106f8565b820191906000526020600020905b8154815290600101906020018083116106db57829003601f168201915b5050505050815260200160018201805461071190610e77565b80601f016020809104026020016040519081016040528092919081815260200182805461073d90610e77565b801561078a5780601f1061075f5761010080835404028352916020019161078a565b820191906000526020600020905b81548152906001019060200180831161076d57829003601f168201915b505050918352505060028281015460209092019160ff16908111156107b1576107b1610dd4565b60028111156107c2576107c2610dd4565b81526020016002820160019054906101000a900460ff1660028111156107ea576107ea610dd4565b60028111156107fb576107fb610dd4565b90525092915050565b60008281526020819052604090206001015461081f81610874565b6102ae8383610905565b600082815260208190526040808220600101805490849055905190918391839186917fbd79b86ffe0ab8e8776151514217cd7cacd52c909f66475c3af44e129f0b00ff9190a4505050565b61087e8133610980565b50565b61088b8282610532565b610285576000828152602081815260408083206001600160a01b03851684529091529020805460ff191660011790556108c13390565b6001600160a01b0316816001600160a01b0316837f2f8788117e7eff1d82e926ec794901d17c78024a50270940304540a733656f0d60405160405180910390a45050565b61090f8282610532565b15610285576000828152602081815260408083206001600160a01b0385168085529252808320805460ff1916905551339285917ff6391f5c32d9c69d2a47ea670b442974b53935d1edc7fd64eb21e047a839171b9190a45050565b8051602091820120825192909101919091201490565b61098a8282610532565b61028557610997816109d9565b6109a28360206109eb565b6040516020016109b3929190610fbf565b60408051601f198184030181529082905262461bcd60e51b825261031f91600401611034565b60606102406001600160a01b03831660145b606060006109fa83600261105d565b610a05906002611074565b67ffffffffffffffff811115610a1d57610a1d610c3b565b6040519080825280601f01601f191660200182016040528015610a47576020820181803683370190505b509050600360fc1b81600081518110610a6257610a62611087565b60200101906001600160f81b031916908160001a905350600f60fb1b81600181518110610a9157610a91611087565b60200101906001600160f81b031916908160001a9053506000610ab584600261105d565b610ac0906001611074565b90505b6001811115610b38576f181899199a1a9b1b9c1cb0b131b232b360811b85600f1660108110610af457610af4611087565b1a60f81b828281518110610b0a57610b0a611087565b60200101906001600160f81b031916908160001a90535060049490941c93610b318161109d565b9050610ac3565b508315610b875760405162461bcd60e51b815260206004820181905260248201527f537472696e67733a20686578206c656e67746820696e73756666696369656e74604482015260640161031f565b9392505050565b600060208284031215610ba057600080fd5b81356001600160e01b031981168114610b8757600080fd5b60008060408385031215610bcb57600080fd5b50508035926020909101359150565b600060208284031215610bec57600080fd5b5035919050565b80356001600160a01b0381168114610c0a57600080fd5b919050565b60008060408385031215610c2257600080fd5b82359150610c3260208401610bf3565b90509250929050565b634e487b7160e01b600052604160045260246000fd5b600082601f830112610c6257600080fd5b813567ffffffffffffffff80821115610c7d57610c7d610c3b565b604051601f8301601f19908116603f01168101908282118183101715610ca557610ca5610c3b565b81604052838152866020858801011115610cbe57600080fd5b836020870160208301376000602085830101528094505050505092915050565b60008060008060808587031215610cf457600080fd5b610cfd85610bf3565b9350602085013567ffffffffffffffff80821115610d1a57600080fd5b610d2688838901610c51565b94506040870135915080821115610d3c57600080fd5b50610d4987828801610c51565b925050606085013560038110610d5e57600080fd5b939692955090935050565b600060208284031215610d7b57600080fd5b610b8782610bf3565b60005b83811015610d9f578181015183820152602001610d87565b50506000910152565b60008151808452610dc0816020860160208601610d84565b601f01601f19169290920160200192915050565b634e487b7160e01b600052602160045260246000fd5b6003811061087e57634e487b7160e01b600052602160045260246000fd5b602081526000825160806020840152610e2460a0840182610da8565b90506020840151601f19848303016040850152610e418282610da8565b9150506040840151610e5281610dea565b806060850152506060840151610e6781610dea565b6080939093019290925250919050565b600181811c90821680610e8b57607f821691505b602082108103610eab57634e487b7160e01b600052602260045260246000fd5b50919050565b601f8211156102ae57600081815260208120601f850160051c81016020861015610ed85750805b601f850160051c820191505b81811015610ef757828155600101610ee4565b505050505050565b815167ffffffffffffffff811115610f1957610f19610c3b565b610f2d81610f278454610e77565b84610eb1565b602080601f831160018114610f625760008415610f4a5750858301515b600019600386901b1c1916600185901b178555610ef7565b600085815260208120601f198616915b82811015610f9157888601518255948401946001909101908401610f72565b5085821015610faf5787850151600019600388901b60f8161c191681555b5050505050600190811b01905550565b7f416363657373436f6e74726f6c3a206163636f756e7420000000000000000000815260008351610ff7816017850160208801610d84565b7001034b99036b4b9b9b4b733903937b6329607d1b6017918401918201528351611028816028840160208801610d84565b01602801949350505050565b602081526000610b876020830184610da8565b634e487b7160e01b600052601160045260246000fd5b808202811582820484141761024057610240611047565b8082018082111561024057610240611047565b634e487b7160e01b600052603260045260246000fd5b6000816110ac576110ac611047565b50600019019056fea2646970667358221220bf9d4e747e6923907925b08a528e7b4b16a4a8ce8dc3bcbc1bd832617d9e66a864736f6c63430008150033",
    "linkReferences": {}
  },
  "methodIdentifiers": {
    "CAPTAIN_ROLE()": "1315bbdc",
    "DEFAULT_ADMIN_ROLE()": "a217fddf",
    "DETECTIVE_ROLE()": "36856c66",
    "OFFICER_ROLE()": "7264953b",
    "getRoleAdmin(bytes32)": "248a9ca3",
    "grantRole(bytes32,address)": "2f2ff15d",
    "hasRole(bytes32,address)": "91d14854",
    "isValidOfficer(address)": "a20ad55f",
    "officer(address)": "aa96a0a0",
    "onboard(address,string,string,uint8)": "5763af25",
    "renounceRole(bytes32,address)": "36568abe",
    "revokeRole(bytes32,address)": "d547741f",
    "setRoleAdmin(bytes32,bytes32)": "1e4e0091",
    "supportsInterface(bytes4)": "01ffc9a7"
  },
  "id": 31
}